{
  "address": "0x14b178b6e888044C84CE4bda3311c0D1D4d066d9",
  "abi": [
    {
      "inputs": [
        {
          "internalType": "address",
          "name": "_router",
          "type": "address"
        },
        {
          "internalType": "address",
          "name": "_link",
          "type": "address"
        },
        {
          "internalType": "address",
          "name": "_trustedForwarder",
          "type": "address"
        },
        {
          "internalType": "address",
          "name": "_gasTank",
          "type": "address"
        },
        {
          "internalType": "address",
          "name": "_passkeyVerifier",
          "type": "address"
        },
        {
          "internalType": "address",
          "name": "_recoveryVerifier",
          "type": "address"
        },
        {
          "internalType": "address",
          "name": "_ghoToken",
          "type": "address"
        },
        {
          "internalType": "address",
          "name": "_ghoAggregator",
          "type": "address"
        },
        {
          "internalType": "address",
          "name": "_ethAggregator",
          "type": "address"
        }
      ],
      "stateMutability": "nonpayable",
      "type": "constructor"
    },
    {
      "inputs": [
        {
          "internalType": "uint64",
          "name": "destinationChainSelector",
          "type": "uint64"
        }
      ],
      "name": "DestinationChainNotAllowlisted",
      "type": "error"
    },
    {
      "inputs": [
        {
          "internalType": "address",
          "name": "owner",
          "type": "address"
        },
        {
          "internalType": "address",
          "name": "target",
          "type": "address"
        },
        {
          "internalType": "uint256",
          "name": "value",
          "type": "uint256"
        }
      ],
      "name": "FailedToWithdrawEth",
      "type": "error"
    },
    {
      "inputs": [
        {
          "internalType": "address",
          "name": "router",
          "type": "address"
        }
      ],
      "name": "InvalidRouter",
      "type": "error"
    },
    {
      "inputs": [
        {
          "internalType": "uint256",
          "name": "currentBalance",
          "type": "uint256"
        },
        {
          "internalType": "uint256",
          "name": "calculatedFees",
          "type": "uint256"
        }
      ],
      "name": "NotEnoughBalance",
      "type": "error"
    },
    {
      "inputs": [],
      "name": "NothingToWithdraw",
      "type": "error"
    },
    {
      "inputs": [
        {
          "internalType": "address",
          "name": "sender",
          "type": "address"
        }
      ],
      "name": "SenderNotAllowlisted",
      "type": "error"
    },
    {
      "inputs": [
        {
          "internalType": "uint64",
          "name": "sourceChainSelector",
          "type": "uint64"
        }
      ],
      "name": "SourceChainNotAllowlisted",
      "type": "error"
    },
    {
      "anonymous": false,
      "inputs": [
        {
          "indexed": true,
          "internalType": "address",
          "name": "from",
          "type": "address"
        },
        {
          "indexed": true,
          "internalType": "address",
          "name": "to",
          "type": "address"
        }
      ],
      "name": "OwnershipTransferRequested",
      "type": "event"
    },
    {
      "anonymous": false,
      "inputs": [
        {
          "indexed": true,
          "internalType": "address",
          "name": "from",
          "type": "address"
        },
        {
          "indexed": true,
          "internalType": "address",
          "name": "to",
          "type": "address"
        }
      ],
      "name": "OwnershipTransferred",
      "type": "event"
    },
    {
      "anonymous": false,
      "inputs": [
        {
          "indexed": false,
          "internalType": "string",
          "name": "name",
          "type": "string"
        },
        {
          "indexed": false,
          "internalType": "address",
          "name": "valerium",
          "type": "address"
        }
      ],
      "name": "ValeriumCreated",
      "type": "event"
    },
    {
      "inputs": [
        {
          "internalType": "string",
          "name": "",
          "type": "string"
        }
      ],
      "name": "ValeriumNameToDetails",
      "outputs": [
        {
          "internalType": "address",
          "name": "walletAddress",
          "type": "address"
        },
        {
          "internalType": "bool",
          "name": "isUsed",
          "type": "bool"
        }
      ],
      "stateMutability": "view",
      "type": "function"
    },
    {
      "inputs": [],
      "name": "acceptOwnership",
      "outputs": [],
      "stateMutability": "nonpayable",
      "type": "function"
    },
    {
      "inputs": [],
      "name": "accountImplementation",
      "outputs": [
        {
          "internalType": "contract Valerium",
          "name": "",
          "type": "address"
        }
      ],
      "stateMutability": "view",
      "type": "function"
    },
    {
      "inputs": [
        {
          "internalType": "uint64",
          "name": "_destinationChainSelector",
          "type": "uint64"
        },
        {
          "internalType": "bool",
          "name": "allowed",
          "type": "bool"
        }
      ],
      "name": "allowlistDestinationChain",
      "outputs": [],
      "stateMutability": "nonpayable",
      "type": "function"
    },
    {
      "inputs": [
        {
          "internalType": "address",
          "name": "_sender",
          "type": "address"
        },
        {
          "internalType": "bool",
          "name": "allowed",
          "type": "bool"
        }
      ],
      "name": "allowlistSender",
      "outputs": [],
      "stateMutability": "nonpayable",
      "type": "function"
    },
    {
      "inputs": [
        {
          "internalType": "uint64",
          "name": "_sourceChainSelector",
          "type": "uint64"
        },
        {
          "internalType": "bool",
          "name": "allowed",
          "type": "bool"
        }
      ],
      "name": "allowlistSourceChain",
      "outputs": [],
      "stateMutability": "nonpayable",
      "type": "function"
    },
    {
      "inputs": [
        {
          "internalType": "uint64",
          "name": "",
          "type": "uint64"
        }
      ],
      "name": "allowlistedDestinationChains",
      "outputs": [
        {
          "internalType": "bool",
          "name": "",
          "type": "bool"
        }
      ],
      "stateMutability": "view",
      "type": "function"
    },
    {
      "inputs": [
        {
          "internalType": "address",
          "name": "",
          "type": "address"
        }
      ],
      "name": "allowlistedSenders",
      "outputs": [
        {
          "internalType": "bool",
          "name": "",
          "type": "bool"
        }
      ],
      "stateMutability": "view",
      "type": "function"
    },
    {
      "inputs": [
        {
          "internalType": "uint64",
          "name": "",
          "type": "uint64"
        }
      ],
      "name": "allowlistedSourceChains",
      "outputs": [
        {
          "internalType": "bool",
          "name": "",
          "type": "bool"
        }
      ],
      "stateMutability": "view",
      "type": "function"
    },
    {
      "inputs": [
        {
          "components": [
            {
              "internalType": "bytes32",
              "name": "messageId",
              "type": "bytes32"
            },
            {
              "internalType": "uint64",
              "name": "sourceChainSelector",
              "type": "uint64"
            },
            {
              "internalType": "bytes",
              "name": "sender",
              "type": "bytes"
            },
            {
              "internalType": "bytes",
              "name": "data",
              "type": "bytes"
            },
            {
              "components": [
                {
                  "internalType": "address",
                  "name": "token",
                  "type": "address"
                },
                {
                  "internalType": "uint256",
                  "name": "amount",
                  "type": "uint256"
                }
              ],
              "internalType": "struct Client.EVMTokenAmount[]",
              "name": "destTokenAmounts",
              "type": "tuple[]"
            }
          ],
          "internalType": "struct Client.Any2EVMMessage",
          "name": "message",
          "type": "tuple"
        }
      ],
      "name": "ccipReceive",
      "outputs": [],
      "stateMutability": "nonpayable",
      "type": "function"
    },
    {
      "inputs": [
        {
          "internalType": "string",
          "name": "name",
          "type": "string"
        },
        {
          "internalType": "bytes",
          "name": "_passkeyInputs",
          "type": "bytes"
        },
        {
          "internalType": "bytes32",
          "name": "_recoveryKeyHash",
          "type": "bytes32"
        },
        {
          "internalType": "uint256",
          "name": "salt",
          "type": "uint256"
        }
      ],
      "name": "createAccount",
      "outputs": [
        {
          "internalType": "contract Valerium",
          "name": "ret",
          "type": "address"
        }
      ],
      "stateMutability": "nonpayable",
      "type": "function"
    },
    {
      "inputs": [
        {
          "internalType": "uint64",
          "name": "_destinationChainSelector",
          "type": "uint64"
        },
        {
          "internalType": "address",
          "name": "_receiver",
          "type": "address"
        },
        {
          "internalType": "string",
          "name": "name",
          "type": "string"
        },
        {
          "internalType": "uint256",
          "name": "salt",
          "type": "uint256"
        }
      ],
      "name": "createExternalAccount",
      "outputs": [
        {
          "internalType": "contract Valerium",
          "name": "ret",
          "type": "address"
        }
      ],
      "stateMutability": "nonpayable",
      "type": "function"
    },
    {
      "inputs": [
        {
          "internalType": "address",
          "name": "_passkeyVerifier",
          "type": "address"
        },
        {
          "internalType": "bytes",
          "name": "_passkeyInputs",
          "type": "bytes"
        },
        {
          "internalType": "address",
          "name": "_recoveryVerifier",
          "type": "address"
        },
        {
          "internalType": "bytes32",
          "name": "_recoveryKeyHash",
          "type": "bytes32"
        },
        {
          "internalType": "uint256",
          "name": "salt",
          "type": "uint256"
        }
      ],
      "name": "getAddress",
      "outputs": [
        {
          "internalType": "address",
          "name": "",
          "type": "address"
        }
      ],
      "stateMutability": "view",
      "type": "function"
    },
    {
      "inputs": [],
      "name": "getRouter",
      "outputs": [
        {
          "internalType": "address",
          "name": "",
          "type": "address"
        }
      ],
      "stateMutability": "view",
      "type": "function"
    },
    {
      "inputs": [
        {
          "internalType": "string",
          "name": "name",
          "type": "string"
        }
      ],
      "name": "getValerium",
      "outputs": [
        {
          "components": [
            {
              "internalType": "address",
              "name": "walletAddress",
              "type": "address"
            },
            {
              "internalType": "bool",
              "name": "isUsed",
              "type": "bool"
            }
          ],
          "internalType": "struct ValeriumStorage.ValeriumDetails",
          "name": "",
          "type": "tuple"
        }
      ],
      "stateMutability": "view",
      "type": "function"
    },
    {
      "inputs": [
        {
          "internalType": "address",
          "name": "forwarder",
          "type": "address"
        }
      ],
      "name": "isTrustedForwarder",
      "outputs": [
        {
          "internalType": "bool",
          "name": "",
          "type": "bool"
        }
      ],
      "stateMutability": "view",
      "type": "function"
    },
    {
      "inputs": [],
      "name": "owner",
      "outputs": [
        {
          "internalType": "address",
          "name": "",
          "type": "address"
        }
      ],
      "stateMutability": "view",
      "type": "function"
    },
    {
      "inputs": [],
      "name": "passkeyVerifier",
      "outputs": [
        {
          "internalType": "address",
          "name": "",
          "type": "address"
        }
      ],
      "stateMutability": "view",
      "type": "function"
    },
    {
      "inputs": [],
      "name": "recoveryVerifier",
      "outputs": [
        {
          "internalType": "address",
          "name": "",
          "type": "address"
        }
      ],
      "stateMutability": "view",
      "type": "function"
    },
    {
      "inputs": [
        {
          "internalType": "bytes4",
          "name": "interfaceId",
          "type": "bytes4"
        }
      ],
      "name": "supportsInterface",
      "outputs": [
        {
          "internalType": "bool",
          "name": "",
          "type": "bool"
        }
      ],
      "stateMutability": "pure",
      "type": "function"
    },
    {
      "inputs": [
        {
          "internalType": "address",
          "name": "to",
          "type": "address"
        }
      ],
      "name": "transferOwnership",
      "outputs": [],
      "stateMutability": "nonpayable",
      "type": "function"
    }
  ],
  "transactionHash": "0x7deece7f2dc3c1662e5027d9613d48d7c337657ff216598d21779501daae38a3",
  "args": [
    "0x2a9C5afB0d0e4BAb2BCdaE109EC4b0c4Be15a165",
    "0xb1D4538B4571d411F07960EF2838Ce337FE1E80E",
    "0x75a7d9B87391664F816863e28df0c2e63dfb4543",
    "0x2EF41EC23021bD5aBa53C6599D763e89A897Acad",
    "0x2aa4c97688f340C8A2bDE2016b16dEFDC259834D",
    "0x8487F6630510A00bFACd9Fe701700F193F52C04F",
    "0xc4bF5CbDaBE595361438F8c6a187bDc330539c60",
    "0x635A86F9fdD16Ff09A0701C305D3a845F1758b8E",
    "0x694AA1769357215DE4FAC081bf1f309aDC325306"
  ],
  "numDeployments": 3,
  "solcInputHash": "c8785b457c674bbe21f8958a2d6f3bf2",
  "bytecode": "0x60e0604052346200006b575b6200002962000019620001b9565b97969096959195949294620002c7565b604051613353620005a582396080518161138b015260a051818181610d220152610e53015260c0518181816105f7015281816118f7015261248d015261335390f35b62000074600080fd5b6200000b565b600080fd5b50634e487b7160e01b600052604160045260246000fd5b90601f01601f191681019081106001600160401b03821117620000b857604052565b620000c26200007f565b604052565b90620000de620000d660405190565b928362000096565b565b6001600160a01b031690565b90565b6001600160a01b038116036200007a57565b90505190620000de82620000ef565b909161012082840312620001aa575b6200012b838362000101565b926200013b816020850162000101565b926200014b826040830162000101565b926200015b836060840162000101565b926200016b816080850162000101565b926200017b8260a0830162000101565b92620000ec6200018f8460c0850162000101565b936200019f8160e0860162000101565b936101000162000101565b620001b3600080fd5b6200011f565b620001dc62006e4680380380620001d081620000c7565b92833981019062000110565b909192939495969798565b90959492620000de946200023b6200024b926200022b6080966200021b60a088019c60008901906001600160a01b03169052565b6001600160a01b03166020870152565b6001600160a01b03166040850152565b6001600160a01b03166060830152565b01906001600160a01b03169052565b506040513d6000823e3d90fd5b620000ec90620000e0906001600160a01b031682565b620000ec9062000267565b620000ec906200027d565b90620002a7620000ec620002c39262000288565b82546001600160a01b0319166001600160a01b03919091161790565b9055565b916200031d620000de996200033b9697996200034399620002ef856200033399979862000386565b60405195869561354e87016001600160401b038111888210176200035b575b61354e620038f88939620001e7565b03906000f080156200034b575b60c05262000288565b600362000293565b600462000293565b600562000293565b620003556200025a565b6200032a565b620003656200007f565b6200030e565b620000e0620000ec620000ec9290565b620000ec906200036b565b906200039290620003f5565b6200039e60006200037b565b6001600160a01b0381166001600160a01b03831614620003be575060a052565b620003f190620003cd60405190565b6335fdcccd60e21b8152918291600483016001600160a01b03909116815260200190565b0390fd5b620000de90819081908190336200040d60006200037b565b9062000461565b156200041c57565b60405162461bcd60e51b815260206004820152601860248201527f43616e6e6f7420736574206f776e657220746f207a65726f00000000000000006044820152606490fd5b62000470620004a99293608052565b620000e06200048060006200037b565b91620004a16001600160a01b0384166001600160a01b038316141562000414565b600162000293565b6001600160a01b03821603620004bc5750565b620000de906200052b565b15620004cf57565b60405162461bcd60e51b815260206004820152601760248201527f43616e6e6f74207472616e7366657220746f2073656c660000000000000000006044820152606490fd5b620000ec90620000e0565b620000ec905462000514565b62000542336001600160a01b0383161415620004c7565b6200054f81600262000293565b6200055b60016200051f565b90620005936200058c7fed8889f560326eb138920d842192f0eb3dd22b4f139c87a2c57538e05bae12789362000288565b9162000288565b916200059e60405190565b600090a356fe608060405260043610156200001a575b62000018600080fd5b005b60003560e01c806301f0f46e14620001fc57806301ffc9a714620001f157806311464fbe14620001e65780632b6ae8e414620001db5780634030d52114620001d057806356f7655514620001c5578063572b6c0514620001ba5780636159ada114620001af57806369986a6614620001a457806375c67c66146200019957806379ba5097146200018e5780637b386db0146200018357806385572ffb14620001785780638c36144d146200016d5780638da5cb5b14620001625780638e5e5ded146200015757806396d3b83d146200014c578063b0f479a11462000141578063db04fa491462000136578063eab5b02c146200012b5763f2fde38b036200000f576200012562000de2565b6200000f565b506200012562000db3565b506200012562000d56565b506200012562000d07565b506200012562000cd8565b506200012562000c56565b506200012562000c16565b506200012562000bd7565b506200012562000b71565b506200012562000ad8565b506200012562000a37565b506200012562000a05565b5062000125620009ba565b5062000125620008fd565b5062000125620008aa565b506200012562000853565b506200012562000767565b50620001256200066f565b5062000125620005dc565b50620001256200052a565b50620001256200049b565b600080fd5b601f01601f191690565b50634e487b7160e01b600052604160045260246000fd5b90601f01601f1916810190811067ffffffffffffffff8211176200025057604052565b6200025a62000216565b604052565b90620002766200026e60405190565b92836200022d565b565b6200029960209167ffffffffffffffff81116200029d57601f01601f191690565b0190565b6200020c62000216565b90826000939282370152565b9291906200027691620002d0620002ca8362000278565b6200025f565b9482865260208601918382011115620002a757620002ec600080fd5b620002a7565b90620003119181601f8201121562000314575b602081359101620002b3565b90565b6200031d600080fd5b62000305565b9062000311916020818303126200035f575b80359067ffffffffffffffff821162000350575b01620002f2565b62000359600080fd5b62000349565b62000368600080fd5b62000335565b60005b838110620003825750506000910152565b818101518382015260200162000371565b62000299620003ae92602092620003a8815190565b94859290565b938491016200036e565b9052565b620003cf62000299916020949362000393565b918252565b620003ec620003e260405190565b92839283620003bc565b03902090565b6200031191620003d4565b62000311905b73ffffffffffffffffffffffffffffffffffffffff1690565b620003119054620003fd565b620003119060a01c5b60ff1690565b62000311905462000428565b62000450906000620003f2565b9062000311600062000462846200041c565b930162000437565b620003b89062000403565b9160206200027692949362000493604082019660008301906200046a565b019015159052565b5034620004d7575b620004ba620004b436600462000323565b62000443565b90620004d3620004c960405190565b9283928362000475565b0390f35b620004e0600080fd5b620004a3565b6001600160e01b031981165b036200020757565b905035906200027682620004e6565b90620003119160208183031215620004fa5762000524600080fd5b620004fa565b50346200055f575b620004d36200054d6200054736600462000509565b62000e10565b60405191829182901515815260200190565b62000568600080fd5b62000532565b60009103126200057a57565b62000276600080fd5b6200040362000311620003119273ffffffffffffffffffffffffffffffffffffffff1690565b620003119062000583565b6200031190620005a9565b620003b890620005b4565b602081019291620002769190620005bf565b503462000624575b620005f13660046200056e565b620004d37f00000000000000000000000000000000000000000000000000000000000000005b60405191829182620005ca565b6200062d600080fd5b620005e4565b62000311916008021c62000403565b9062000311915462000633565b620003116000600462000642565b6020810192916200027691906200046a565b50346200069f575b620006843660046200056e565b620004d3620006926200064f565b604051918291826200065d565b620006a8600080fd5b62000677565b67ffffffffffffffff8116620004f2565b905035906200027682620006ae565b90620003119160208183031215620006bf57620006e9600080fd5b620006bf565b6200070962000311620003119267ffffffffffffffff1690565b67ffffffffffffffff1690565b906200072290620006ef565b600052602052604060002090565b62000311916008021c62000431565b9062000311915462000730565b62000311906200076160079160009262000716565b6200073f565b50346200078a575b620004d36200054d62000784366004620006ce565b6200074c565b62000793600080fd5b6200076f565b620004f28162000403565b90503590620002768262000799565b80620004f2565b905035906200027682620007b3565b919060a08382031262000844575b620007e38184620007a4565b926200080782602083013567ffffffffffffffff811162000835575b8301620002f2565b92620003116200081b8460408501620007a4565b936200082b8160608601620007ba565b93608001620007ba565b6200083e600080fd5b620007ff565b6200084d600080fd5b620007d7565b50346200087a575b620004d36200069262000870366004620007c9565b9392909262002432565b62000883600080fd5b6200085b565b90620003119160208183031215620007a457620008a4600080fd5b620007a4565b5034620008cd575b620004d36200054d620008c736600462000889565b62001381565b620008d6600080fd5b620008b2565b906200072290620005b4565b620003119062000761600891600092620008dc565b503462000920575b620004d36200054d6200091a36600462000889565b620008e8565b62000929600080fd5b62000905565b608081830312620009ab575b6200095a82823567ffffffffffffffff811162000835578301620002f2565b92620003116200098284602085013567ffffffffffffffff81116200099c575b8501620002f2565b93620009928160408601620007ba565b93606001620007ba565b620009a5600080fd5b6200097a565b620009b4600080fd5b6200093b565b5034620009e1575b620004d362000617620009d73660046200092f565b9291909162001889565b620009ea600080fd5b620009c2565b62000311906200076160069160009262000716565b503462000a28575b620004d36200054d62000a22366004620006ce565b620009f0565b62000a31600080fd5b62000a0d565b503462000a5b575b62000a4c3660046200056e565b62000a56620011a1565b604051005b62000a64600080fd5b62000a3f565b60808183031262000ac9575b62000a828282620006bf565b926200031162000a968460208501620007a4565b936200099281604086013567ffffffffffffffff811162000aba575b8601620002f2565b62000ac3600080fd5b62000ab2565b62000ad2600080fd5b62000a76565b503462000aff575b620004d36200061762000af536600462000a6a565b9291909162001aaf565b62000b08600080fd5b62000ae0565b908160a091031262000b1d5790565b62000311600080fd5b90620003119160208183031262000b62575b80359067ffffffffffffffff821162000b53575b0162000b0e565b62000b5c600080fd5b62000b4c565b62000b6b600080fd5b62000b38565b503462000b90575b62000a5662000b8a36600462000b26565b620010c7565b62000b99600080fd5b62000b79565b90602080620002769362000bbc600082015160008601906200046a565b01511515910152565b60408101929162000276919062000b9f565b503462000c07575b620004d362000bfa62000bf436600462000323565b6200264f565b6040519182918262000bc5565b62000c10600080fd5b62000bdf565b503462000c39575b62000c2b3660046200056e565b620004d36200069262001248565b62000c42600080fd5b62000c1e565b620003116000600562000642565b503462000c79575b62000c6b3660046200056e565b620004d36200069262000c48565b62000c82600080fd5b62000c5e565b801515620004f2565b90503590620002768262000c88565b9190620003119060408482031262000cc9575b62000cbf8185620006bf565b9360200162000c91565b62000cd2600080fd5b62000cb3565b503462000cf8575b62000a5662000cf136600462000ca0565b9062001403565b62000d01600080fd5b62000ce0565b503462000d47575b62000d1c3660046200056e565b620004d37f000000000000000000000000000000000000000000000000000000000000000062000692565b62000d50600080fd5b62000d0f565b503462000d76575b62000a5662000d6f36600462000ca0565b9062001431565b62000d7f600080fd5b62000d5e565b9190620003119060408482031262000da4575b62000cbf8185620007a4565b62000dad600080fd5b62000d98565b503462000dd3575b62000a5662000dcc36600462000d85565b906200145f565b62000ddc600080fd5b62000dbb565b503462000e01575b62000a5662000dfb36600462000889565b620010ec565b62000e0a600080fd5b62000dea565b6385572ffb60e01b6001600160e01b031982161490811562000e30575090565b6301ffc9a760e01b91506001600160e01b0319161490565b1490565b3362000e787f000000000000000000000000000000000000000000000000000000000000000062000403565b62000e838262000403565b0362000e9557506200027690620010b2565b62000ebb9062000ea460405190565b6335fdcccd60e21b8152918291600483016200065d565b0390fd5b6020809167ffffffffffffffff811162000ed857020190565b62000ee262000216565b020190565b91909160408184031262000f2a575b62000f2462000f0660406200025f565b93600062000f158285620007a4565b908601526020809301620007ba565b90830152565b62000f33600080fd5b62000ef6565b9092919262000f4c620002ca8262000ebf565b93818552604060208601920283019281841162000f91575b915b83831062000f745750505050565b602060409162000f85848662000ee7565b81520192019162000f66565b62000f9a600080fd5b62000f64565b90620003119181601f8201121562000fbf575b60208135910162000f39565b62000fc8600080fd5b62000fb3565b9190620010809060a08482031262001096575b62000fed60a06200025f565b93600062000ffc8383620007ba565b9086015260206200101083828401620006bf565b908601526200103682604083013567ffffffffffffffff811162000835578301620002f2565b60408601526200105d82606083013567ffffffffffffffff811162000835578301620002f2565b606086015260808101359067ffffffffffffffff821162001087575b0162000fa0565b6080830152565b62001090600080fd5b62001079565b6200109f600080fd5b62000fe1565b6200031190369062000fce565b620010c16200027691620010a5565b620017f4565b620002769062000e4c565b6200027690620010e16200135a565b6200027690620012a1565b6200027690620010d2565b15620010ff57565b60405162461bcd60e51b815260206004820152601660248201527f4d7573742062652070726f706f736564206f776e6572000000000000000000006044820152606490fd5b9073ffffffffffffffffffffffffffffffffffffffff905b9181191691161790565b906200117a620003116200118292620005b4565b825462001144565b9055565b6200040362000311620003119290565b620003119062001186565b33620011ce620011bc620011b660026200041c565b62000403565b620011c78362000403565b14620010f7565b620011da60016200041c565b90620011e881600162001166565b62001200620011f8600062001196565b600262001166565b62001237620012307f8be0079c531659141344cd1fd0a4f28419497f9722a3daafe3b4186f6b6457e093620005b4565b91620005b4565b916200124260405190565b600090a3565b6200031160016200041c565b156200125c57565b60405162461bcd60e51b815260206004820152601760248201527f43616e6e6f74207472616e7366657220746f2073656c660000000000000000006044820152606490fd5b620012c3620012b03362000403565b620012bb8362000403565b141562001254565b620012d081600262001166565b620012dc60016200041c565b9062001237620012307fed8889f560326eb138920d842192f0eb3dd22b4f139c87a2c57538e05bae127893620005b4565b156200131557565b60405162461bcd60e51b815260206004820152601660248201527f4f6e6c792063616c6c61626c65206279206f776e6572000000000000000000006044820152606490fd5b62000276336200137a62001373620011b660016200041c565b9162000403565b146200130d565b62000e48620013737f000000000000000000000000000000000000000000000000000000000000000062000403565b906200027691620013c06200135a565b620013eb565b9060ff906200115c565b90620013e3620003116200118292151590565b8254620013c6565b90620013fd6200027692600662000716565b620013d0565b906200027691620013b0565b9062000276916200141f6200135a565b90620013fd6200027692600762000716565b9062000276916200140f565b9062000276916200144d6200135a565b90620013fd62000276926008620008dc565b9062000276916200143d565b90505190620002768262000799565b906200031191602081830312156200146b5762001495600080fd5b6200146b565b620003119062000431565b6200031190546200149b565b602081015167ffffffffffffffff16620014eb620014e560408401516020620014d9825190565b8183010191016200147a565b620005b4565b906200150b620015076200150183600762000716565b620014a6565b1590565b6200155d5750620015266200150762001501836008620008dc565b62001537575062000276906200174a565b62000ebb906200154660405190565b6338c08ef960e11b8152918291600483016200065d565b62000ebb906200156c60405190565b6326bfad9160e21b81529182916004830167ffffffffffffffff909116815260200190565b9291906200027691620015a8620002ca8362000278565b94828652602086019183820111156200036e57620015c4600080fd5b6200036e565b90620003119181601f82011215620015e9575b60208151910162001591565b620015f2600080fd5b620015dd565b905051906200027682620007b3565b60808183031262001696575b6200163682600083015167ffffffffffffffff811162001687575b8301620015ca565b92620003116200165e84602085015167ffffffffffffffff811162001678575b8501620015ca565b936200166e8160408601620015f8565b93606001620015f8565b62001681600080fd5b62001656565b62001690600080fd5b6200162e565b6200169f600080fd5b62001613565b15620016ad57565b60405162461bcd60e51b815260206004820152601760248201527f56616c657269756d20616c7265616479206578697374730000000000000000006044820152606490fd5b620017176200020c60209362000299936200170b815190565b80835293849260200190565b958691016200036e565b9291602062001741620002769360408701908782036000890152620016f2565b9401906200046a565b620017b5620017726060620014e5930151602062001766825190565b81830101910162001607565b91620017ae6000969496620017a762001373620011b6620017a084620017998d82620003f2565b016200041c565b9362001196565b14620016a5565b8562001889565b7fa15797ba1e1c0e4fea7eb08668507689b0afce684dfabbc8ecf569d71f0db77591620017ef620017e560405190565b9283928362001721565b0390a1565b6200027690620014b2565b6200031162000311620003119290565b6200185062001844606093620002769698979562001836608086019260008701906200046a565b8482036020860152620016f2565b9660408301906200046a565b0152565b9162000311926200186e604082019360008301906200046a565b6020818403910152620016f2565b506040513d6000823e3d90fd5b939290620018b282846200189e60046200041c565b84620018ab60056200041c565b9162002432565b60009290803b620018cb620018c786620017ff565b9190565b11620019df575092620019b292620014e592620018ec6200027696620017ff565b92620019686200191c7f0000000000000000000000000000000000000000000000000000000000000000620005b4565b91620019586200192d60046200041c565b916200193a60056200041c565b6040515b639307607160e01b6020820152968794602486016200180f565b602082018103825203836200022d565b620019a26200197660405190565b928392610656840184811067ffffffffffffffff821117620019cf575b61065662002672863962001854565b0391f58015620019c557620005b4565b92620019be84620005b4565b90620025c7565b620014e56200187c565b620019d962000216565b62001993565b9250505062000311929350620014e59150620005b4565b15620019fe57565b60405162461bcd60e51b815260206004820152601760248201527f56616c657269756d20646f6573206e6f742065786973740000000000000000006044820152606490fd5b90620003119160208183031262001a7f575b80519067ffffffffffffffff821162001a70575b01620015ca565b62001a79600080fd5b62001a69565b62001a88600080fd5b62001a55565b90620003119160208183031215620015f85762001aa9600080fd5b620015f8565b62001b88620017b592959462001b6662001ac7600090565b9386859960009262001afe62001ae385620017998682620003f2565b62001af662001373620011b68862001196565b1415620019f6565b62001b1b620014e5620014e5620014e587620017998882620003f2565b638c7a91ed62001b3562001b2e60405190565b9160e01b90565b81528581600481855afa95861562001c04575b60009662001bd6575b505060405195602091879162957bdf60e31b90565b825260049082905afa94851562001bc6575b60009562001b8f575b506200215f565b50620005b4565b62001bb691955060203d811162001bbe575b62001bad81836200022d565b81019062001a8e565b933862001b81565b503d62001ba1565b62001bd06200187c565b62001b78565b60209296509062001bfb913d8091833e62001bf281836200022d565b81019062001a43565b94903862001b51565b62001c0e6200187c565b62001b48565b969594939291909662001c3162001507620015018a600662000716565b62001c43579662000311969762001e03565b62000ebb8862001c5260405190565b630a503cdb60e01b81529182916004830167ffffffffffffffff909116815260200190565b90602080620002769362001c94600082015160008601906200046a565b0151910152565b90620002998160409362001c77565b9062001ccd62001cc662001cbc845190565b8084529260200190565b9260200190565b9060005b81811062001cdf5750505090565b90919262001cfc62001cf5600192865162001c9b565b9460200190565b92910162001cd1565b6200031191608062001d5562001d4262001d2f60a0850160008701518682036000880152620016f2565b60208601518582036020870152620016f2565b6040850151848203604086015262001caa565b9262001d6a606082015160608501906200046a565b0151906080818403910152620016f2565b67ffffffffffffffff909116815262000311916040820191602081840391015262001d05565b908152604081019291620002769160200152565b90505190620002768262000c88565b9062000311916020818303121562001db55762001ddf600080fd5b62001db5565b9160206200027692949362001850604082019660008301906200046a565b50959462001e26949193909262001e1f620014e560036200041c565b946200229a565b62001e3130620005b4565b9262001e70620014e563b0f479a162001e4d62001b2e60405190565b81526020816004818a5afa9081156200214f575b6000916200211a5750620005b4565b6320487ded9462001e8b62001e8460405190565b9660e01b90565b86526020868062001ea187876004840162001d7b565b0381855afa9586156200210a575b600096620020e5575b5062001ec9620014e560036200041c565b62001f186370a0823191602062001edf60405190565b809262001eec8660e01b90565b8252818062001eff89600483016200065d565b03915afa90811562001fe3575b60009162001fc7575090565b87116200203557505062001f6a60208094959662001f3b620014e560036200041c565b62001f5d600063095ea7b362001f5060405190565b9687958694859360e01b90565b8352896004840162001de5565b03925af1801562002025575b62001ff3575b5062001fa360006396f4e9f962001faf62001f9660405190565b9788968795869460e01b90565b84526004840162001d7b565b03925af190811562001fe35760009162001fc7575090565b62000311915060203d811162001bbe5762001bad81836200022d565b62001fed6200187c565b62001f0c565b6200201790843d81116200201d575b6200200e81836200022d565b81019062001dc4565b62001f7c565b503d62002002565b6200202f6200187c565b62001f76565b6020879262002076926200206a62002052620014e560036200041c565b916200205d60405190565b9586948593849360e01b90565b8352600483016200065d565b03915afa908115620020d5575b600091620020b2575b5062000ebb6200209b60405190565b634787a10360e11b81529283926004840162001da1565b620020ce915060203d811162001bbe5762001bad81836200022d565b826200208c565b620020df6200187c565b62002083565b6200210291965060203d811162001bbe5762001bad81836200022d565b943862001eb8565b620021146200187c565b62001eaf565b62002140915060203d811162002147575b6200213781836200022d565b8101906200147a565b3862001b88565b503d6200212b565b620021596200187c565b62001e61565b62000311959493929190600062001c14565b6200031160a06200025f565b6200218762002171565b60608082526020820181905260408201819052600081830152608082015290565b620003116200217d565b62001850620021eb6200027695979694620021dc60609560808601908682036000880152620016f2565b908482036020860152620016f2565b966040830152565b90620003cf620002ca8362000ebf565b6200031160406200025f565b6200221962002203565b906000825260006020830152565b620003116200220f565b60005b8281106200224157505050565b6020906200224e62002227565b818401520162002234565b9062000276620022746200226d84620021f3565b9362000ebf565b601f19016020840162002231565b6200031160206200025f565b90620003b89062000403565b92949062001080926200230791620022fa6200031197620022ba620021a8565b50620022e8620022c960405190565b8099620022db6020830191826200065d565b908103825203896200022d565b604051998a94602086019485620021b2565b908103825203866200022d565b6200237860009562002371620023276200232189620017ff565b62002259565b916200236a62002359620dbba0620023536200234d6200234662002282565b92620017ff565b8d830152565b620023cf565b976200236462002171565b9a8b0152565b6020890152565b6040870152565b606085016200228e565b6200239862002392620003119290565b60e01b90565b6001600160e01b03191690565b620003116397a657c962002382565b51620002769152565b602081019291620002769190620023b4565b62000311600491620023df606090565b506200240a620023ee620023a5565b91620023f960405190565b9485936020850190815201620023bd565b602082018103825203826200022d565b6200242b9062000311939262000393565b9062000393565b92620024cf90620024dc620024fb93620024ee95620024bd62002463620003119a6200245c600090565b50620017ff565b9862001958610656966200247a602089016200025f565b9780895262002cc860208a0139620024b27f0000000000000000000000000000000000000000000000000000000000000000620005b4565b946200193e60405190565b60405194859260208401928362001854565b908103825203836200022d565b6040519384926020840192836200241a565b908103825203826200022d565b6200250f62002508825190565b9160200190565b209062000311916200252130620005b4565b91605592600b9291604051926040840152602083015281520160ff81532090565b62000311905162000403565b9074ff00000000000000000000000000000000000000009060a01b6200115c565b9062002582620003116200118292151590565b82546200254e565b6200027691620025b490602090620025ad620025a68262002542565b8562001166565b0151151590565b906200256f565b9062000276916200258a565b90620025fe6200027692620025f66001620025ed620025e562002203565b95866200228e565b15156020850152565b6000620003f2565b620025bb565b90620002766200263b60006200261962002203565b94620026346200262b8383016200041c565b8388016200228e565b0162000437565b15156020840152565b620003119062002604565b6200266b62000311916200266262002227565b506000620003f2565b6200264456fe608060405261001561000f6101ba565b906101dc565b60405160f4610562823960f490f35b601f01601f191690565b50634e487b7160e01b600052604160045260246000fd5b90601f01601f191681019081106001600160401b0382111761006657604052565b61006e61002e565b604052565b9061008761008060405190565b9283610045565b565b600080fd5b6001600160a01b031690565b90565b6001600160a01b0381160361008957565b905051906100878261009d565b6020906100da906001600160401b0381116100de57601f01601f191690565b0190565b61002461002e565b60005b8381106100f95750506000910152565b81810151838201526020016100e9565b9291906100879161012161011c836100bb565b610073565b94828652602086019183820111156100e65761013b600080fd5b6100e6565b9061009a9181601f8201121561015c575b602081519101610109565b610164600080fd5b610151565b919061009a906040848203126101ad575b61018481856100ae565b602085015190946001600160401b0382116101a0575b01610140565b6101a8600080fd5b61019a565b6101b5600080fd5b61017a565b6101d8610656803803806101cd81610073565b928339810190610169565b9091565b610087916000916101f5565b61009a61009a61009a9290565b916101ff8361025e565b815161021261020e60006101e8565b9190565b11908115610230575b50610224575050565b61022d916103f7565b50565b90503861021b565b61009a9061008e906001600160a01b031682565b61009a90610238565b61009a9061024c565b61026781610360565b6102917fbc7cd75a20ee27fd9adebab32041f755214dbc6bffa90cc0225b39da2e5c2d3b91610255565b9061029b60405190565b600090a2565b156102a857565b60405162461bcd60e51b815260206004820152602d60248201527f455243313936373a206e657720696d706c656d656e746174696f6e206973206e60448201526c1bdd08184818dbdb9d1c9858dd609a1b6064820152608490fd5b0390fd5b61009a7f360894a13ba1a3210667c828492db98dca3e2076cc3735a920a3ca505d382bbc6101e8565b9061034061009a61035c92610255565b82546001600160a01b0319166001600160a01b03919091161790565b9055565b6100879061037561037082610388565b6102a1565b600061038261009a610307565b01610330565b3b61039661020e60006101e8565b1190565b906103a761011c836100bb565b918252565b6103b6602761039a565b7f416464726573733a206c6f772d6c6576656c2064656c65676174652063616c6c6020820152660819985a5b195960ca1b604082015290565b61009a6103ac565b61009a916104036103ef565b91610428565b3d15610423576104183d61039a565b903d6000602084013e565b606090565b60008061009a9493610438606090565b50805190602001845af461044a610409565b9161049c565b1561045757565b60405162461bcd60e51b815260206004820152601d60248201527f416464726573733a2063616c6c20746f206e6f6e2d636f6e74726163740000006044820152606490fd5b9192606091156104d157505081516104b761020e60006101e8565b146104c0575090565b6104cc61009a91610388565b610450565b9093926100879250610519565b6104ff6100246020936100da936104f3815190565b80835293849260200190565b958691016100e6565b602080825261009a929101906104de565b9150610523825190565b61053061020e60006101e8565b111561053f5750805190602001fd5b6103039061054c60405190565b62461bcd60e51b81529182916004830161050856fe608060405236156012575b6010601c565b005b6018601c565b600a565b60226024565b565b6022602c6030565b609c565b6036608b565b90565b6036603660369290565b60367f360894a13ba1a3210667c828492db98dca3e2076cc3735a920a3ca505d382bbc6039565b73ffffffffffffffffffffffffffffffffffffffff1690565b60369054606a565b60366000609760366043565b016083565b600091508190368280378136915af43d6000803e1560b9573d6000f35b3d6000fdfea2646970667358221220c2b74ecbc475318d9ba662d544ad2e1831b3606ff76cd117bfc54e36cefc601a64736f6c63430008110033608060405261001561000f6101ba565b906101dc565b60405160f4610562823960f490f35b601f01601f191690565b50634e487b7160e01b600052604160045260246000fd5b90601f01601f191681019081106001600160401b0382111761006657604052565b61006e61002e565b604052565b9061008761008060405190565b9283610045565b565b600080fd5b6001600160a01b031690565b90565b6001600160a01b0381160361008957565b905051906100878261009d565b6020906100da906001600160401b0381116100de57601f01601f191690565b0190565b61002461002e565b60005b8381106100f95750506000910152565b81810151838201526020016100e9565b9291906100879161012161011c836100bb565b610073565b94828652602086019183820111156100e65761013b600080fd5b6100e6565b9061009a9181601f8201121561015c575b602081519101610109565b610164600080fd5b610151565b919061009a906040848203126101ad575b61018481856100ae565b602085015190946001600160401b0382116101a0575b01610140565b6101a8600080fd5b61019a565b6101b5600080fd5b61017a565b6101d8610656803803806101cd81610073565b928339810190610169565b9091565b610087916000916101f5565b61009a61009a61009a9290565b916101ff8361025e565b815161021261020e60006101e8565b9190565b11908115610230575b50610224575050565b61022d916103f7565b50565b90503861021b565b61009a9061008e906001600160a01b031682565b61009a90610238565b61009a9061024c565b61026781610360565b6102917fbc7cd75a20ee27fd9adebab32041f755214dbc6bffa90cc0225b39da2e5c2d3b91610255565b9061029b60405190565b600090a2565b156102a857565b60405162461bcd60e51b815260206004820152602d60248201527f455243313936373a206e657720696d706c656d656e746174696f6e206973206e60448201526c1bdd08184818dbdb9d1c9858dd609a1b6064820152608490fd5b0390fd5b61009a7f360894a13ba1a3210667c828492db98dca3e2076cc3735a920a3ca505d382bbc6101e8565b9061034061009a61035c92610255565b82546001600160a01b0319166001600160a01b03919091161790565b9055565b6100879061037561037082610388565b6102a1565b600061038261009a610307565b01610330565b3b61039661020e60006101e8565b1190565b906103a761011c836100bb565b918252565b6103b6602761039a565b7f416464726573733a206c6f772d6c6576656c2064656c65676174652063616c6c6020820152660819985a5b195960ca1b604082015290565b61009a6103ac565b61009a916104036103ef565b91610428565b3d15610423576104183d61039a565b903d6000602084013e565b606090565b60008061009a9493610438606090565b50805190602001845af461044a610409565b9161049c565b1561045757565b60405162461bcd60e51b815260206004820152601d60248201527f416464726573733a2063616c6c20746f206e6f6e2d636f6e74726163740000006044820152606490fd5b9192606091156104d157505081516104b761020e60006101e8565b146104c0575090565b6104cc61009a91610388565b610450565b9093926100879250610519565b6104ff6100246020936100da936104f3815190565b80835293849260200190565b958691016100e6565b602080825261009a929101906104de565b9150610523825190565b61053061020e60006101e8565b111561053f5750805190602001fd5b6103039061054c60405190565b62461bcd60e51b81529182916004830161050856fe608060405236156012575b6010601c565b005b6018601c565b600a565b60226024565b565b6022602c6030565b609c565b6036608b565b90565b6036603660369290565b60367f360894a13ba1a3210667c828492db98dca3e2076cc3735a920a3ca505d382bbc6039565b73ffffffffffffffffffffffffffffffffffffffff1690565b60369054606a565b60366000609760366043565b016083565b600091508190368280378136915af43d6000803e1560b9573d6000f35b3d6000fdfea2646970667358221220c2b74ecbc475318d9ba662d544ad2e1831b3606ff76cd117bfc54e36cefc601a64736f6c63430008110033a2646970667358221220ea9c421b5a5fb9591d1f3362d4905bb391d7587d38338b8a7f83632fb027ab8864736f6c6343000811003360a0604052346200003e575b62000023620000196200014a565b93929092620001d4565b60405161332e6200022082396080518161150b015261332e90f35b62000047600080fd5b6200000b565b600080fd5b50634e487b7160e01b600052604160045260246000fd5b90601f01601f191681019081106001600160401b038211176200008b57604052565b6200009562000052565b604052565b90620000b1620000a960405190565b928362000069565b565b6001600160a01b031690565b90565b6001600160a01b038116036200004d57565b90505190620000b182620000c2565b919060a0838203126200013b575b620000fd8184620000d4565b926200010d8260208301620000d4565b92620000bf620001218460408501620000d4565b93620001318160608601620000d4565b93608001620000d4565b62000144600080fd5b620000f1565b6200016d6200354e8038038062000161816200009a565b928339810190620000e3565b9091929394565b620000bf90620000b3906001600160a01b031682565b620000bf9062000174565b620000bf906200018a565b90620001b4620000bf620001d09262000195565b82546001600160a01b0319166001600160a01b03919091161790565b9055565b620002179262000207620000b1969593620001ff6200020f94620001f781608052565b6006620001a0565b6007620001a0565b6008620001a0565b6009620001a0565b600a620001a056fe60806040526004361015610018575b361561001657005b005b60003560e01c806223de29146102d357806301ffc9a7146102ca57806304abdef8146102c1578063150b7a02146102b85780631d7d7f78146102af578063292105aa146102a65780632a1690cb1461029d5780632b6ae8e4146102945780632c74b3491461028b5780633e43b0b6146102825780634e4d520c146102795780635014587114610270578063572b6c05146102675780635db6fd551461025e5780636420f9e71461025557806364ddaf191461024c57806366cab694146102435780637659accb1461023a5780637a01280314610231578063889e9a88146102285780638c7a91ed1461021f5780638e5e5ded146102165780638ee06ddd1461020d5780639307607114610204578063b1c660f7146101fb578063b42f1bf5146101f2578063bc197c81146101e9578063ce6d41de146101e0578063d4b15105146101d7578063dcb7970f146101ce578063e3046c81146101c5578063e3aa66b2146101bc578063e78207c8146101b3578063eeb4bafe146101aa5763f23a6e610361000e576101a56114cd565b61000e565b506101a5611442565b506101a56113d6565b506101a56113ac565b506101a5611376565b506101a561134c565b506101a5611331565b506101a5611307565b506101a56112d3565b506101a561121a565b506101a5611136565b506101a56110fa565b506101a561107c565b506101a5611052565b506101a561101c565b506101a5610ed5565b506101a5610e21565b506101a5610d63565b506101a5610c1b565b506101a5610be4565b506101a5610b97565b506101a5610b09565b506101a5610ac2565b506101a5610a84565b506101a5610a63565b506101a561098c565b506101a5610962565b506101a5610920565b506101a561089d565b506101a5610811565b506101a5610609565b506101a5610595565b506101a56104fe565b506101a5610495565b506101a5610423565b600080fd5b6001600160a01b031690565b90565b6001600160a01b0381165b036102dc57565b9050359061030f826102f0565b565b806102fb565b9050359061030f82610311565b909182601f83011215610368575b602082359267ffffffffffffffff841161035b575b01928284011161035357565b61030f600080fd5b610363600080fd5b610347565b610370600080fd5b610332565b9060c082820312610416575b61038b8183610302565b926103998260208501610302565b926103a78360408301610302565b926103b58160608401610317565b926103f86103d983608086013567ffffffffffffffff8111610409575b8601610324565b93909460a08101359067ffffffffffffffff82116103fc575b01610324565b9091565b610404600080fd5b6103f2565b610411600080fd5b6103d2565b61041e600080fd5b610381565b503461044a575b610435366004610375565b505050505050505061001660405190565b0390f35b610452600080fd5b61042a565b6001600160e01b031981166102fb565b9050359061030f82610457565b906102ed91602081830312156104675761048c600080fd5b610467565b9052565b50346104c4575b6104466104b26104ad366004610474565b613110565b60405191829182901515815260200190565b6104cc600080fd5b61049c565b600091031261035357565b6102ed916008021c81565b906102ed91546104dc565b6102ed600060046104e7565b503461052b575b6105103660046104d1565b61044661051b6104f2565b6040519182918290815260200190565b610533600080fd5b610505565b608081830312610588575b61054d8282610302565b926103f861055e8460208501610302565b9361056c8160408601610317565b9360608101359067ffffffffffffffff82116103fc5701610324565b610590600080fd5b610543565b50346105d1575b6104466105b66105ad366004610538565b939290926130c1565b604051918291826001600160e01b0319909116815260200190565b6105d9600080fd5b61059c565b6102ed916008021c6001600160a01b031690565b906102ed91546105de565b6102ed600060066105f2565b5034610640575b61061b3660046104d1565b6104466106266105fd565b604051918291826001600160a01b03909116815260200190565b610648600080fd5b610610565b601f01601f191690565b50634e487b7160e01b600052604160045260246000fd5b90601f01601f1916810190811067ffffffffffffffff82111761069057604052565b610698610657565b604052565b9061030f6106aa60405190565b928361066e565b6106d060209167ffffffffffffffff81116106d457601f01601f191690565b0190565b61064d610657565b90826000939282370152565b92919061030f916107006106fb836106b1565b61069d565b94828652602086019183820111156106dc5761071a600080fd5b6106dc565b906102ed9181601f8201121561073b575b6020813591016106e8565b610743600080fd5b610730565b6001600160f81b031981166102fb565b9050359061030f82610748565b919060a083820312610804575b61078f81843567ffffffffffffffff81116107f7575b850161071f565b9261079d8260208301610758565b926102ed6107c084604085013567ffffffffffffffff81116107f757850161071f565b936107e181606086013567ffffffffffffffff81116107ea575b860161071f565b93608001610317565b6107f2600080fd5b6107da565b6107ff600080fd5b610788565b61080c600080fd5b610772565b5034610832575b61044661051b610829366004610765565b93929092612cf2565b61083a600080fd5b610818565b60005b8381106108525750506000910152565b8181015183820152602001610842565b61088361064d6020936106d093610877815190565b80835293849260200190565b9586910161083f565b60208082526102ed92910190610862565b50346108c6575b6108af3660046104d1565b6104466108ba612968565b6040519182918261088c565b6108ce600080fd5b6108a4565b6102ed600260006105f2565b6102e16102ed6102ed926001600160a01b031690565b6102ed906108df565b6102ed906108f5565b610491906108fe565b60208101929161030f9190610907565b5034610949575b6109323660046104d1565b61044661093d6108d3565b60405191829182610910565b610951600080fd5b610927565b6102ed600060076105f2565b503461097f575b6109743660046104d1565b610446610626610956565b610987600080fd5b610969565b50346109a9575b61099e3660046104d1565b6104466108ba612fc8565b6109b1600080fd5b610993565b91909160c081840312610a56575b6109e183823567ffffffffffffffff8111610a49575b8301610324565b9290936102ed6109f48260208601610302565b93610a028360408301610317565b93610a2384606084013567ffffffffffffffff8111610a3c575b8401610324565b939094610a338160808601610317565b9360a001610317565b610a44600080fd5b610a1c565b610a51600080fd5b6109da565b610a5e600080fd5b6109c4565b506104466104b2610a753660046109b6565b96959095949194939293611bb3565b506104466104b2610a963660046109b6565b96959095949194939293612184565b906102ed916020818303121561030257610abd600080fd5b610302565b5034610adf575b6104466104b2610ada366004610aa5565b6114fe565b610ae7600080fd5b610ac9565b906102ed916020818303121561031757610b04600080fd5b610317565b5034610b26575b61044661051b610b21366004610aec565b611e4d565b610b2e600080fd5b610b10565b91604083830312610b8a575b6102ed610b5e83853567ffffffffffffffff8111610409578601610324565b93909460208101359067ffffffffffffffff8211610b7d575b0161071f565b610b85600080fd5b610b77565b610b92600080fd5b610b3f565b506104466104b2610ba9366004610b33565b916119c5565b906103f891602081830312610bd7575b80359067ffffffffffffffff82116103fc5701610324565b610bdf600080fd5b610bbf565b5034610c02575b6104466104b2610bfc366004610baf565b90613069565b610c0a600080fd5b610beb565b6102ed600060096105f2565b5034610c38575b610c2d3660046104d1565b610446610626610c0f565b610c40600080fd5b610c22565b909182601f83011215610c84575b602082359267ffffffffffffffff8411610c77575b01926020830284011161035357565b610c7f600080fd5b610c68565b610c8c600080fd5b610c53565b91608083830312610d56575b610cba82843567ffffffffffffffff8111610d49575b8501610324565b929093610cdd82602083013567ffffffffffffffff8111610d3c575b8301610c45565b9290936103f8610d0383604086013567ffffffffffffffff8111610d2f575b8601610c45565b93909460608101359067ffffffffffffffff8211610d22575b01610c45565b610d2a600080fd5b610d1c565b610d37600080fd5b610cfc565b610d44600080fd5b610cd6565b610d51600080fd5b610cb3565b610d5e600080fd5b610c9d565b506104466104b2610d75366004610c91565b9695909594919493929361192a565b906102ed91602081830312610dac575b80359067ffffffffffffffff8211610b7d570161071f565b610db4600080fd5b610d94565b9695939094610e0f610dfc60a095610dee8b610e1c97610de161030f9c600060c08501940152565b8d820360208f0152610862565b908b820360408d0152610862565b6001600160f81b031990931660608a0152565b8782036080890152610862565b940152565b5034610e57575b610446610e3e610e39366004610d84565b612c7a565b92610e4e96949692919260405190565b96879687610db9565b610e5f600080fd5b610e28565b90608082820312610ec8575b610e8c81833567ffffffffffffffff8111610a3c578401610324565b9290936102ed610eb184602085013567ffffffffffffffff81116107f757850161071f565b93610ebf8160408601610317565b93606001610317565b610ed0600080fd5b610e70565b506104466104b2610ee7366004610e64565b93929092611d3b565b50634e487b7160e01b600052600060045260246000fd5b50634e487b7160e01b600052602260045260246000fd5b9060016002830492168015610f41575b6020831014610f3957565b61030f610f07565b91607f1691610f2e565b80546000939291610f68610f5e83610f1e565b8085529360200190565b9160018116908115610fba5750600114610f8157505050565b610f949192939450600052602060002090565b916000925b818410610fa65750500190565b805484840152602090930192600101610f99565b92949550505060ff1916825215156020020190565b906102ed91610f4b565b9061030f610ff392610fea60405190565b93848092610fcf565b038361066e565b6102ed9115610fd95761100b610ef0565b610fd9565b6102ed60006001610ffa565b5034611039575b61102e3660046104d1565b6104466108ba611010565b611041600080fd5b611023565b6102ed600060036105f2565b503461106f575b6110643660046104d1565b61044661093d611046565b611077600080fd5b611059565b503461109a575b6104466104b2611094366004610baf565b90612a3d565b6110a2600080fd5b611083565b6080818303126110ed575b6110bc8282610302565b926102ed6110df84602085013567ffffffffffffffff81116107f757850161071f565b93610ebf8160408601610302565b6110f5600080fd5b6110b2565b503461111d575b61111861110f3660046110a7565b9291909161177a565b604051005b611125600080fd5b611101565b6102ed600060086105f2565b5034611153575b6111483660046104d1565b61044661062661112a565b61115b600080fd5b61113d565b9060c08282031261120d575b61118881833567ffffffffffffffff8111610a3c578401610324565b9290936111ab83602084013567ffffffffffffffff81116111f3575b8401610c45565b9290936102ed6111d182604085013567ffffffffffffffff8111611200575b8501610c45565b939094610a2384606084013567ffffffffffffffff81116111f3578401610c45565b6111fb600080fd5b6111a4565b611208600080fd5b6111ca565b611215600080fd5b61116c565b506104466104b261122c366004611160565b989790979691969592959493946121f2565b909160a0828403126112c6575b6112558383610302565b926112638160208501610302565b9261128382604083013567ffffffffffffffff8111610d3c578301610c45565b9290936103f86112a883606086013567ffffffffffffffff8111610d2f578601610c45565b93909460808101359067ffffffffffffffff82116103fc5701610324565b6112ce600080fd5b61124b565b50346112fa575b6104466105b66112eb36600461123e565b969590959491949392936130f4565b611302600080fd5b6112da565b5034611324575b6113193660046104d1565b61044661051b612b27565b61132c600080fd5b61130e565b506104466104b2611343366004610e64565b93929092612257565b5034611369575b61135e3660046104d1565b6104466108ba6126d2565b611371600080fd5b611353565b5034611393575b61044661051b61138e366004610d84565b613028565b61139b600080fd5b61137d565b6102ed6000600a6105f2565b50346113c9575b6113be3660046104d1565b6104466106266113a0565b6113d1600080fd5b6113b3565b506104466104b26113e8366004611160565b98979097969196959295949394611cd2565b90608082820312611435575b61142281833567ffffffffffffffff8111610a3c578401610324565b9290936103f861055e8460208501610302565b61143d600080fd5b611406565b506104466104b26114543660046113fa565b949390939291926118dd565b919060a0838203126114c0575b6114778184610302565b926114858260208301610302565b926103f86114968460408501610317565b936114a48160608601610317565b9360808101359067ffffffffffffffff82116103fc5701610324565b6114c8600080fd5b61146d565b50346114f1575b6104466105b66114e5366004611460565b949390939291926130da565b6114f9600080fd5b6114d4565b6115396001600160a01b037f0000000000000000000000000000000000000000000000000000000000000000165b916001600160a01b031690565b1490565b6102ed9060081c5b60ff1690565b6102ed905461153d565b6102ed90611545565b6102ed9054611555565b6115456102ed6102ed9290565b1561157c57565b60405162461bcd60e51b815260206004820152602e60248201527f496e697469616c697a61626c653a20636f6e747261637420697320616c72656160448201527f647920696e697469616c697a65640000000000000000000000000000000000006064820152608490fd5b9060ff905b9181191691161790565b6115456102ed6102ed9260ff1690565b906116166102ed61161d926115f6565b82546115e7565b9055565b9061ff009060081b6115ec565b9061163e6102ed61161d92151590565b8254611621565b61049190611568565b60208101929161030f9190611645565b926116ad9192611675611671600061154b565b1590565b938480611750575b801561170b575b61168d90611575565b600195856116a461169d89611568565b6000611606565b6116fb5761176e565b6116b45750565b6116bf60008061162e565b6116f67f7f26b83ff96e1f2b6a682f133852f6798a09c465da95921460cefb3847402498916116ed60405190565b9182918261164e565b0390a1565b61170687600061162e565b61176e565b5061172061167161171b306108fe565b611793565b8015611684575061168d611734600061155e565b6117486117416001611568565b9160ff1690565b149050611684565b5061175b600061155e565b6117686117416001611568565b1061167d565b9061030f9392916117a9565b9061030f93929161165e565b6102ed6102ed6102ed9290565b3b6117a56117a16000611786565b9190565b1190565b61030f9392916117b8916126a3565b612faa565b6102ed906102e1565b6102ed90546117bd565b156117d757565b60405162461bcd60e51b815260206004820152602c60248201527f56616c657269756d20466f727761726465722063616e6e6f742063616c6c207460448201527f6869732066756e6374696f6e00000000000000000000000000000000000000006064820152608490fd5b906102ed9695949392916118673361186061152c6102e160066117c6565b14156117d0565b6118b8565b1561187357565b60405162461bcd60e51b815260206004820152600f60248201527f496e76616c696420706173736b657900000000000000000000000000000000006044820152606490fd5b6118d896959493926118d3926118ce9250612ada565b61186c565b612271565b600190565b6102ed9594939291906000611842565b906102ed989796959493929161190d3361186061152c6102e160066117c6565b6118d898979695949392611925926118ce9250612ada565b612352565b6102ed979695949392919060006118ed565b906102ed9392916119573361186061152c6102e160066117c6565b6119a8565b1561196357565b60405162461bcd60e51b815260206004820152601060248201527f496e76616c6964207265636f76657279000000000000000000000000000000006044820152606490fd5b6118d893926119c0926119bb925061309a565b61195c565b61297e565b6102ed929190600061193c565b156119d957565b60405162461bcd60e51b815260206004820152602e60248201527f4f6e6c792056616c657269756d20466f727761726465722063616e2063616c6c60448201527f20746869732066756e6374696f6e0000000000000000000000000000000000006064820152608490fd5b906102ed9897969594939291611a6a33611a6461152c6102e160066117c6565b146119d2565b611b1d565b50634e487b7160e01b600052601160045260246000fd5b9190611a91565b9290565b8201809211611a9c57565b61030f611a6f565b15611aab57565b60405162461bcd60e51b815260206004820152600f60248201527f4e6f7420656e6f756768206665657300000000000000000000000000000000006044820152606490fd5b91908203918211611a9c57565b81810292918115918404141715611a9c57565b506040513d6000823e3d90fd5b90611b66600099978a999597611b7a978b9a99611b7597611b5f8d9c611b6e9950611b586117a16102ed87611b51306108fe565b3194611a86565b1015611aa4565b5a966118dd565b505a90611af0565b3a90611afd565b611a86565b611b8f611b8a611b8a60076117c6565b6108fe565b828215611baa575bf115611ba257600190565b6118d8611b10565b506108fc611b97565b6102ed97969594939291906000611a44565b906102ed9a999897969594939291611be733611a6461152c6102e160066117c6565b611c3e565b6001906000198114611bfc570190565b6106d0611a6f565b50634e487b7160e01b600052603260045260246000fd5b91602091811015611c2c575b020190565b611c27611c04565b356102ed81610311565b989496919792959893909350600095611c5687611786565b98895b8b8b1015611c98579b89611c8e611c888e9f8e9f9e8f611c8291611c7d9187611c1b565b611c34565b90611a86565b9d611bec565b9b50509b9a611c59565b889c899c918a9c5094611b6e9794611b75999794611ccb611b7a9d9e94611b586117a16102ed611b669c611b51306108fe565b5a9861192a565b6102ed999897969594939291906000611bc5565b906102ed9594939291611d0333611a6461152c6102e160066117c6565b93611b75611b6e611b7a93611b66600099978a9997611d348b9a8b9a50611b586117a1611d2f306108fe565b319290565b5a936119c5565b6102ed94939291906000611ce6565b69ffffffffffffffffffff81166102fb565b9050519061030f82611d4a565b9050519061030f82610311565b919060a083820312611dc3575b611d8d8184611d5c565b92611d9b8260208301611d69565b926102ed611dac8460408501611d69565b93611dba8160608601611d69565b93608001611d5c565b611dcb600080fd5b611d83565b50634e487b7160e01b600052601260045260246000fd5b8115611e0f575b600160ff1b8114600019831416611e03570590565b611e0b611a6f565b0590565b611e17611dd0565b611dee565b8181029291600160ff1b81146000831216611e40575b8184051490151715611a9c57565b611e48611a6f565b611e32565b6102ed90611ee7611ec8611e64611b8a600a6117c6565b611e7a611e74611b8a60096117c6565b916108fe565b63feaf968c60a0611e8a60405190565b8093611e968460e01b90565b825260049082905afa918215611f55575b600092611f2d575b50611ebc60a092936108fe565b60405194859260e01b90565b825260049082905afa918215611f20575b600092611eed575b50611de7565b90611e1c565b611f0f91925060a03d8111611f19575b611f07818361066e565b810190611d76565b5050509190611ee1565b503d611efd565b611f28611b10565b611ed9565b60a09250611f4a611ebc91843d8111611f1957611f07818361066e565b505050935050611eaf565b611f5d611b10565b611ea7565b906102ed9897969594939291611f8233611a6461152c6102e160066117c6565b611ff3565b906102ed9160208183031215611d6957611f9f600080fd5b611d69565b8015156102fb565b9050519061030f82611fa4565b906102ed9160208183031215611fac57611fd1600080fd5b611fac565b6001600160a01b03909116815260408101929161030f9160200152565b610b2196612093966120939996611b7596611b6e96611b5f6120696120989f611b6698506020612029611b8a611b8a60086117c6565b6370a082319061205261203b306108fe565b9261204560405190565b9687948593849360e01b90565b83526001600160a01b031660048301526024820190565b03915afa918215612177575b600092612133575b506117a16102ed612093610b21611b5894611786565b611786565b60206120aa611b8a611b8a60086117c6565b63a9059cbb906120d960006120bf60076117c6565b936120e46120cc60405190565b9788968795869460e01b90565b845260048401611fd6565b03925af18015612126575b6120fa575b50600190565b61211a9060203d811161211f575b612112818361066e565b810190611fb9565b6120f4565b503d612108565b61212e611b10565b6120ef565b611b589192506102ed612093610b216121656117a19460203d8111612170575b61215d818361066e565b810190611f87565b95945050505061207d565b503d612153565b61217f611b10565b612075565b6102ed97969594939291906000611f62565b906102ed9a9998979695949392916121b833611a6461152c6102e160066117c6565b966120939996611b7596611b6e96610b219b9496611b66966120989f612069611ccb916120939f506020612029611b8a611b8a60086117c6565b6102ed999897969594939291906000612196565b906102ed959493929161222333611a6461152c6102e160066117c6565b611b6e6120939592611b66610b219661209396611d346120696120989c611b7598506020612029611b8a611b8a60086117c6565b6102ed94939291906000612206565b6102ed9136916106e8565b9161030f9361227f91612266565b916124ae565b1561228c57565b60405162461bcd60e51b815260206004820152601360248201527f77726f6e67206172726179206c656e67746873000000000000000000000000006044820152606490fd5b356102ed816102f0565b903590601e19368290030182121561231f575b01602081359167ffffffffffffffff8311612312575b019136829003831361035357565b61231a600080fd5b612304565b612327600080fd5b6122ee565b906103f892602091811015612345575b028101906122db565b61234d611c04565b61233c565b90919492939561235f8390565b956123738588148681612454575b50612285565b856000966123836117a189611786565b036123f057505061239385611786565b865b8110156123e6576123df816123da8a61227f6123c8848b6123c26123bd6123959a8e8e611c1b565b6122d1565b9461232c565b6123d48d939293611786565b92612266565b611bec565b9050612393565b5095505050505050565b9392919097956123ff90611786565b875b81101561244957612442816123da8b8a61227f61243c858d6123c2611c7d8f9b8f9c8f6123bd6124019f849061243693611c1b565b99611c1b565b90612266565b90506123ff565b509650505050505050565b9050876124616000611786565b8114918215612473575b50503861236d565b915014388061246b565b9061248a6106fb836106b1565b918252565b3d156124a95761249e3d61247d565b903d6000602084013e565b606090565b6000928392602082019151925af16124cc6124c761248f565b911590565b6124d35750565b602081519101fd5b9075ffffffffffffffffffffffffffffffffffffffff00009060101b6115ec565b9061250c6102ed61161d926108fe565b82546124db565b9160001960089290920291821b911b6115ec565b91906125386102ed61161d93611786565b908354612513565b61030f91600091612527565b818110612557575050565b806125656000600193612540565b0161254c565b9190601f811161257a57505050565b61258c61030f93600052602060002090565b906020601f8401819004830193106125ae575b6020601f90910104019061254c565b909150819061259f565b906125c1815190565b9067ffffffffffffffff821161268c575b6125e6826125e08554610f1e565b8561256b565b602090601f83116001146126215761161d929160009183612616575b5050600019600883021c1916906002021790565b015190503880612602565b601f1983169161263685600052602060002090565b9260005b8181106126745750916002939185600196941061265b575b50505002019055565b01516000196008601f8516021c19169055388080612652565b9193602060018192878701518155019501920161263a565b612694610657565b6125d2565b9061030f916125b8565b906126ba6126b361030f936108fe565b60006124fc565b6001612699565b6102ed9081565b6102ed90546126c1565b6102ed6126df60026126c8565b612722565b369037565b9061030f6126ff6126f98461247d565b936106b1565b601f1901602084016126e4565b8115612716570490565b61271e611dd0565b0490565b61272b816127bb565b9061273b6001926106d084611786565b9180612746846126e9565b936020018401905b612759575b50505090565b61279a9060001901927f3031323334353637383961626364656600000000000000000000000000000000600a82061a8453612794600a611786565b9061270c565b90816127a96117a16000611786565b146127b65790918161274e565b612753565b6127c56000611786565b907a184f03e93ff9f4daa797ed6e38ed64bf6a1f0100000000000000006127eb81611786565b82101561293d575b506d04ee2d6d415b85acef810000000061280c81611786565b82101561291b575b50662386f26fc1000061282681611786565b8210156128f9575b506305f5e10061283d81611786565b8210156128d7575b5061271061285281611786565b8210156128b5575b50606461286681611786565b821015612893575b5061287c6117a1600a611786565b10156128855790565b6102ed906106d06001611786565b6128ae916127946128a392611786565b916106d06002611786565b903861286e565b6128d0916127946128c592611786565b916106d06004611786565b903861285a565b6128f2916127946128e792611786565b916106d06008611786565b9038612845565b6129149161279461290992611786565b916106d06010611786565b903861282e565b6129369161279461292b92611786565b916106d06020611786565b9038612814565b6129589161279461294d92611786565b916106d06040611786565b90386127f3565b6102ed90610fd9565b612975610e39600161295f565b50505050905090565b61030f906001612699565b6102ed9060101c6102e1565b6102ed9054612989565b919061064d816129b6816106d09560209181520190565b80956106dc565b906129dd6129d66129cc845190565b8084529260200190565b9260200190565b9060005b8181106129ee5750505090565b909192612a0b612a046001928651815260200190565b9460200190565b9291016129e1565b916102ed9391612a2f916040850191858303600087015261299f565b9160208184039101526129bd565b602090612a63612a4b612b27565b612a58610e39600161295f565b5050505050906131b9565b612a93612a73611b8a6000612995565b91612a9e63ea50d0e491612a8660405190565b9788968795869560e01b90565b855260048501612a13565b03915afa908115612acd575b600091612ab5575090565b6102ed915060203d811161211f57612112818361066e565b612ad5611b10565b612aaa565b612ae7916118ce91612a3d565b6120f4612b10565b90600019906115ec565b90612b096102ed61161d92611786565b8254612aef565b6126d2612b206123da60026126c8565b6002612af9565b6102ed612b37610e39600161295f565b9450919250612b446126d2565b92612cf2565b92919061030f91612b5d6106fb836106b1565b948286526020860191838201111561083f57612b77600080fd5b61083f565b906102ed9181601f82011215612b98575b602081519101612b4a565b612ba0600080fd5b612b8d565b9050519061030f82610748565b909160c082840312612c6d575b612bc98383611d69565b92612bea81602085015167ffffffffffffffff8111612c60575b8501612b7c565b92612c0b82604083015167ffffffffffffffff8111612c53575b8301612b7c565b926102ed612c1c8460608501612ba5565b93612c3d81608086015167ffffffffffffffff8111612c46575b8601612b7c565b9360a001611d69565b612c4e600080fd5b612c36565b612c5b600080fd5b612c04565b612c68600080fd5b612be3565b612c75600080fd5b612bbf565b612c93906020612c88825190565b818301019101612bb2565b94959394929391929091565b906001602091612cad845190565b811015612cbb575b02010190565b612cc3611c04565b612cb5565b6106d0612ce092602092612cda815190565b94859290565b9384910161083f565b6102ed91612cc8565b90919392612cfe600090565b50602092612d49612d3b82612d2c612d1e612d1889611786565b88612c9f565b516001600160f81b03191690565b16926001600160f81b03191690565b916001600160f81b03191690565b03612eaf57612d5e612d59825190565b6126e9565b612ddd6117a1612d6c835190565b93612d8660009885612d7d8b611786565b9788928d612ec8565b50612dae612d9360405190565b8092612da28a83019182612ce9565b9081038252038261066e565b612dc0612db9825190565b9160200190565b2092612dce612d9360405190565b612dd9612db9825190565b2090565b03612e9d57612e2f612e22612e79926102ed97858789612e0b612d59612e02839b5190565b611c8285611786565b968794612e228787612e1b885190565b8289612ec8565b5060405191829182612ce9565b039060025afa15612e90575b8651612e699091612e65612e4e60405190565b8b810194855260208082529094859003018461066e565b5190565b92612e7389611786565b91612ec8565b039060025afa15612e88575190565b612e65611b10565b612e98611b10565b612e3b565b60405163ebab5d2960e01b8152600490fd5b604051637e49a3c960e11b8152600490fd5b156102dc57565b90929194612ed4606090565b50612ef7612ee28688611a86565b612ef06117a1611a8d875190565b1015612ec1565b602095612f14612f0a86611b758a611786565b96611b7589611786565b955b612f2a6102ed83611b7589611b758d611786565b811015612f6b57612f2a91611b75612f60836102ed948801518b8a0152612f5a612f538d611786565b8092611a86565b9a611a86565b989250509150612f16565b505094505091505090565b906001600160a01b03906115ec565b90612f956102ed61161d926108fe565b8254612f76565b90612b096102ed61161d9290565b90612fc1612fba61030f936108fe565b6003612f85565b6004612f9c565b6102ed6126df60056126c8565b612fdf601a61247d565b7f19457468657265756d205369676e6564204d6573736167653a0a000000000000602082015290565b6102ed612fd5565b916130226102ed949361302293612cc8565b90612cc8565b6102ed612dce91613037600090565b506102ed613043613008565b61304e6126df845190565b90612da261305b60405190565b948593602085019384613010565b60209061308a61307a61138e612fc8565b61308460046126c8565b906131b9565b612a93612a73611b8a60036117c6565b6130a7916119bb91613069565b6120f4612fc86130ba6123da60056126c8565b6005612af9565b50505050506130ce600090565b50630a85bd0160e11b90565b5050505050506130e8600090565b5063f23a6e6160e01b90565b5050505050505050613104600090565b5063bc197c8160e01b90565b630a85bd0160e11b6001600160e01b031982161490811561314e575b8115613136575090565b6301ffc9a760e01b91506001600160e01b0319161490565b6001600160e01b03198116630271189760e51b14915061312c565b6020809167ffffffffffffffff811161318157020190565b611c27610657565b9061248a6106fb83613169565b9061030f6126ff6131a684613189565b93613169565b9060208091612cad845190565b916131cc6131c76040611786565b613196565b906000906131d982611786565b60206131e481611786565b821015613232579061322091811015613225575b6123da6132136001600160f81b031989841a60f81b166132d0565b61321d83886131ac565b52565b6131d9565b61322d611c04565b6131f8565b5050935061323f90611786565b602061324a81611786565b8210156132a757906123da826132959383101561329a575b61321d61328f6132896132836001600160f81b03198a881a60f81b166132d0565b93611786565b85611a86565b866131ac565b61323f565b6132a2611c04565b613262565b5050905090565b6102ed90611786565b6102ed906132cb6117a16102ed9460ff1690565b901c90565b6120936132e86102ed926132e2600090565b506132ae565b6132f260f8611568565b906132b756fea26469706673582212208e6a6dfc50d98110a322d30978ed643d3867275aaf22c87142eadb04e30a048564736f6c63430008110033",
  "devdoc": {
    "kind": "dev",
    "methods": {
      "ccipReceive((bytes32,uint64,bytes,bytes,(address,uint256)[]))": {
        "details": "Note ensure you check the msg.sender is the OffRampRouter",
        "params": {
          "message": "CCIP Message"
        }
      },
      "getRouter()": {
        "returns": {
          "_0": "i_router address"
        }
      },
      "supportsInterface(bytes4)": {
        "details": "Should indicate whether the contract implements IAny2EVMMessageReceiver e.g. return interfaceId == type(IAny2EVMMessageReceiver).interfaceId || interfaceId == type(IERC165).interfaceId This allows CCIP to check if ccipReceive is available before calling it. If this returns false or reverts, only tokens are transferred to the receiver. If this returns true, tokens are transferred and ccipReceive is called atomically. Additionally, if the receiver address does not have code associated with it at the time of execution (EXTCODESIZE returns 0), only tokens will be transferred.",
        "params": {
          "interfaceId": "The interfaceId to check"
        },
        "returns": {
          "_0": "true if the interfaceId is supported"
        }
      }
    },
    "version": 1
  },
  "userdoc": {
    "kind": "user",
    "methods": {
      "acceptOwnership()": {
        "notice": "Allows an ownership transfer to be completed by the recipient."
      },
      "ccipReceive((bytes32,uint64,bytes,bytes,(address,uint256)[]))": {
        "notice": "Called by the Router to deliver a message. If this reverts, any token transfers also revert. The message will move to a FAILED state and become available for manual execution."
      },
      "getRouter()": {
        "notice": "Return the current router"
      },
      "owner()": {
        "notice": "Get the current owner"
      },
      "supportsInterface(bytes4)": {
        "notice": "IERC165 supports an interfaceId"
      },
      "transferOwnership(address)": {
        "notice": "Allows an owner to begin transferring ownership to a new address, pending."
      }
    },
    "version": 1
  },
  "storageLayout": {
    "storage": [
      {
        "astId": 5853,
        "contract": "contracts/ValeriumFactory.sol:ValeriumFactory",
        "label": "ValeriumNameToDetails",
        "offset": 0,
        "slot": "0",
        "type": "t_mapping(t_string_memory_ptr,t_struct(ValeriumDetails)5848_storage)"
      },
      {
        "astId": 267,
        "contract": "contracts/ValeriumFactory.sol:ValeriumFactory",
        "label": "s_owner",
        "offset": 0,
        "slot": "1",
        "type": "t_address"
      },
      {
        "astId": 269,
        "contract": "contracts/ValeriumFactory.sol:ValeriumFactory",
        "label": "s_pendingOwner",
        "offset": 0,
        "slot": "2",
        "type": "t_address"
      },
      {
        "astId": 4392,
        "contract": "contracts/ValeriumFactory.sol:ValeriumFactory",
        "label": "s_linkToken",
        "offset": 0,
        "slot": "3",
        "type": "t_contract(IERC20)1305"
      },
      {
        "astId": 4394,
        "contract": "contracts/ValeriumFactory.sol:ValeriumFactory",
        "label": "passkeyVerifier",
        "offset": 0,
        "slot": "4",
        "type": "t_address"
      },
      {
        "astId": 4396,
        "contract": "contracts/ValeriumFactory.sol:ValeriumFactory",
        "label": "recoveryVerifier",
        "offset": 0,
        "slot": "5",
        "type": "t_address"
      },
      {
        "astId": 4400,
        "contract": "contracts/ValeriumFactory.sol:ValeriumFactory",
        "label": "allowlistedDestinationChains",
        "offset": 0,
        "slot": "6",
        "type": "t_mapping(t_uint64,t_bool)"
      },
      {
        "astId": 4404,
        "contract": "contracts/ValeriumFactory.sol:ValeriumFactory",
        "label": "allowlistedSourceChains",
        "offset": 0,
        "slot": "7",
        "type": "t_mapping(t_uint64,t_bool)"
      },
      {
        "astId": 4408,
        "contract": "contracts/ValeriumFactory.sol:ValeriumFactory",
        "label": "allowlistedSenders",
        "offset": 0,
        "slot": "8",
        "type": "t_mapping(t_address,t_bool)"
      }
    ],
    "types": {
      "t_address": {
        "encoding": "inplace",
        "label": "address",
        "numberOfBytes": "20"
      },
      "t_bool": {
        "encoding": "inplace",
        "label": "bool",
        "numberOfBytes": "1"
      },
      "t_contract(IERC20)1305": {
        "encoding": "inplace",
        "label": "contract IERC20",
        "numberOfBytes": "20"
      },
      "t_mapping(t_address,t_bool)": {
        "encoding": "mapping",
        "key": "t_address",
        "label": "mapping(address => bool)",
        "numberOfBytes": "32",
        "value": "t_bool"
      },
      "t_mapping(t_string_memory_ptr,t_struct(ValeriumDetails)5848_storage)": {
        "encoding": "mapping",
        "key": "t_string_memory_ptr",
        "label": "mapping(string => struct ValeriumStorage.ValeriumDetails)",
        "numberOfBytes": "32",
        "value": "t_struct(ValeriumDetails)5848_storage"
      },
      "t_mapping(t_uint64,t_bool)": {
        "encoding": "mapping",
        "key": "t_uint64",
        "label": "mapping(uint64 => bool)",
        "numberOfBytes": "32",
        "value": "t_bool"
      },
      "t_string_memory_ptr": {
        "encoding": "bytes",
        "label": "string",
        "numberOfBytes": "32"
      },
      "t_struct(ValeriumDetails)5848_storage": {
        "encoding": "inplace",
        "label": "struct ValeriumStorage.ValeriumDetails",
        "members": [
          {
            "astId": 5845,
            "contract": "contracts/ValeriumFactory.sol:ValeriumFactory",
            "label": "walletAddress",
            "offset": 0,
            "slot": "0",
            "type": "t_address"
          },
          {
            "astId": 5847,
            "contract": "contracts/ValeriumFactory.sol:ValeriumFactory",
            "label": "isUsed",
            "offset": 20,
            "slot": "0",
            "type": "t_bool"
          }
        ],
        "numberOfBytes": "32"
      },
      "t_uint64": {
        "encoding": "inplace",
        "label": "uint64",
        "numberOfBytes": "8"
      }
    }
  }
}