{
  "address": "0x75a7d9B87391664F816863e28df0c2e63dfb4543",
  "abi": [
    {
      "inputs": [
        {
          "internalType": "address",
          "name": "_router",
          "type": "address"
        },
        {
          "internalType": "address",
          "name": "_link",
          "type": "address"
        },
        {
          "internalType": "address",
          "name": "_trustedForwarder",
          "type": "address"
        },
        {
          "internalType": "address",
          "name": "_gasTank",
          "type": "address"
        },
        {
          "internalType": "address",
          "name": "_ghoToken",
          "type": "address"
        },
        {
          "internalType": "address",
          "name": "_ghoAggregator",
          "type": "address"
        },
        {
          "internalType": "address",
          "name": "_ethAggregator",
          "type": "address"
        }
      ],
      "stateMutability": "nonpayable",
      "type": "constructor"
    },
    {
      "inputs": [
        {
          "internalType": "uint64",
          "name": "destinationChainSelector",
          "type": "uint64"
        }
      ],
      "name": "DestinationChainNotAllowlisted",
      "type": "error"
    },
    {
      "inputs": [
        {
          "internalType": "address",
          "name": "owner",
          "type": "address"
        },
        {
          "internalType": "address",
          "name": "target",
          "type": "address"
        },
        {
          "internalType": "uint256",
          "name": "value",
          "type": "uint256"
        }
      ],
      "name": "FailedToWithdrawEth",
      "type": "error"
    },
    {
      "inputs": [
        {
          "internalType": "address",
          "name": "router",
          "type": "address"
        }
      ],
      "name": "InvalidRouter",
      "type": "error"
    },
    {
      "inputs": [
        {
          "internalType": "uint256",
          "name": "currentBalance",
          "type": "uint256"
        },
        {
          "internalType": "uint256",
          "name": "calculatedFees",
          "type": "uint256"
        }
      ],
      "name": "NotEnoughBalance",
      "type": "error"
    },
    {
      "inputs": [],
      "name": "NothingToWithdraw",
      "type": "error"
    },
    {
      "inputs": [
        {
          "internalType": "address",
          "name": "sender",
          "type": "address"
        }
      ],
      "name": "SenderNotAllowlisted",
      "type": "error"
    },
    {
      "inputs": [
        {
          "internalType": "uint64",
          "name": "sourceChainSelector",
          "type": "uint64"
        }
      ],
      "name": "SourceChainNotAllowlisted",
      "type": "error"
    },
    {
      "anonymous": false,
      "inputs": [
        {
          "indexed": true,
          "internalType": "address",
          "name": "from",
          "type": "address"
        },
        {
          "indexed": true,
          "internalType": "address",
          "name": "to",
          "type": "address"
        }
      ],
      "name": "OwnershipTransferRequested",
      "type": "event"
    },
    {
      "anonymous": false,
      "inputs": [
        {
          "indexed": true,
          "internalType": "address",
          "name": "from",
          "type": "address"
        },
        {
          "indexed": true,
          "internalType": "address",
          "name": "to",
          "type": "address"
        }
      ],
      "name": "OwnershipTransferred",
      "type": "event"
    },
    {
      "anonymous": false,
      "inputs": [
        {
          "indexed": false,
          "internalType": "string",
          "name": "name",
          "type": "string"
        },
        {
          "indexed": false,
          "internalType": "address",
          "name": "valerium",
          "type": "address"
        }
      ],
      "name": "ValeriumCreated",
      "type": "event"
    },
    {
      "inputs": [
        {
          "internalType": "string",
          "name": "",
          "type": "string"
        }
      ],
      "name": "ValeriumNameToDetails",
      "outputs": [
        {
          "internalType": "address",
          "name": "walletAddress",
          "type": "address"
        },
        {
          "internalType": "bool",
          "name": "isUsed",
          "type": "bool"
        }
      ],
      "stateMutability": "view",
      "type": "function"
    },
    {
      "inputs": [],
      "name": "acceptOwnership",
      "outputs": [],
      "stateMutability": "nonpayable",
      "type": "function"
    },
    {
      "inputs": [],
      "name": "accountImplementation",
      "outputs": [
        {
          "internalType": "contract Valerium",
          "name": "",
          "type": "address"
        }
      ],
      "stateMutability": "view",
      "type": "function"
    },
    {
      "inputs": [
        {
          "internalType": "uint64",
          "name": "_destinationChainSelector",
          "type": "uint64"
        },
        {
          "internalType": "bool",
          "name": "allowed",
          "type": "bool"
        }
      ],
      "name": "allowlistDestinationChain",
      "outputs": [],
      "stateMutability": "nonpayable",
      "type": "function"
    },
    {
      "inputs": [
        {
          "internalType": "address",
          "name": "_sender",
          "type": "address"
        },
        {
          "internalType": "bool",
          "name": "allowed",
          "type": "bool"
        }
      ],
      "name": "allowlistSender",
      "outputs": [],
      "stateMutability": "nonpayable",
      "type": "function"
    },
    {
      "inputs": [
        {
          "internalType": "uint64",
          "name": "_sourceChainSelector",
          "type": "uint64"
        },
        {
          "internalType": "bool",
          "name": "allowed",
          "type": "bool"
        }
      ],
      "name": "allowlistSourceChain",
      "outputs": [],
      "stateMutability": "nonpayable",
      "type": "function"
    },
    {
      "inputs": [
        {
          "internalType": "uint64",
          "name": "",
          "type": "uint64"
        }
      ],
      "name": "allowlistedDestinationChains",
      "outputs": [
        {
          "internalType": "bool",
          "name": "",
          "type": "bool"
        }
      ],
      "stateMutability": "view",
      "type": "function"
    },
    {
      "inputs": [
        {
          "internalType": "address",
          "name": "",
          "type": "address"
        }
      ],
      "name": "allowlistedSenders",
      "outputs": [
        {
          "internalType": "bool",
          "name": "",
          "type": "bool"
        }
      ],
      "stateMutability": "view",
      "type": "function"
    },
    {
      "inputs": [
        {
          "internalType": "uint64",
          "name": "",
          "type": "uint64"
        }
      ],
      "name": "allowlistedSourceChains",
      "outputs": [
        {
          "internalType": "bool",
          "name": "",
          "type": "bool"
        }
      ],
      "stateMutability": "view",
      "type": "function"
    },
    {
      "inputs": [
        {
          "components": [
            {
              "internalType": "bytes32",
              "name": "messageId",
              "type": "bytes32"
            },
            {
              "internalType": "uint64",
              "name": "sourceChainSelector",
              "type": "uint64"
            },
            {
              "internalType": "bytes",
              "name": "sender",
              "type": "bytes"
            },
            {
              "internalType": "bytes",
              "name": "data",
              "type": "bytes"
            },
            {
              "components": [
                {
                  "internalType": "address",
                  "name": "token",
                  "type": "address"
                },
                {
                  "internalType": "uint256",
                  "name": "amount",
                  "type": "uint256"
                }
              ],
              "internalType": "struct Client.EVMTokenAmount[]",
              "name": "destTokenAmounts",
              "type": "tuple[]"
            }
          ],
          "internalType": "struct Client.Any2EVMMessage",
          "name": "message",
          "type": "tuple"
        }
      ],
      "name": "ccipReceive",
      "outputs": [],
      "stateMutability": "nonpayable",
      "type": "function"
    },
    {
      "inputs": [
        {
          "internalType": "string",
          "name": "name",
          "type": "string"
        },
        {
          "internalType": "address",
          "name": "_passkeyVerifier",
          "type": "address"
        },
        {
          "internalType": "bytes",
          "name": "_passkeyInputs",
          "type": "bytes"
        },
        {
          "internalType": "address",
          "name": "_recoveryVerifier",
          "type": "address"
        },
        {
          "internalType": "bytes32",
          "name": "_recoveryKeyHash",
          "type": "bytes32"
        },
        {
          "internalType": "uint256",
          "name": "salt",
          "type": "uint256"
        }
      ],
      "name": "createAccount",
      "outputs": [
        {
          "internalType": "contract Valerium",
          "name": "ret",
          "type": "address"
        }
      ],
      "stateMutability": "nonpayable",
      "type": "function"
    },
    {
      "inputs": [
        {
          "internalType": "uint64",
          "name": "_destinationChainSelector",
          "type": "uint64"
        },
        {
          "internalType": "address",
          "name": "_receiver",
          "type": "address"
        },
        {
          "internalType": "string",
          "name": "name",
          "type": "string"
        },
        {
          "internalType": "address",
          "name": "_passkeyVerifier",
          "type": "address"
        },
        {
          "internalType": "bytes",
          "name": "_passkeyInputs",
          "type": "bytes"
        },
        {
          "internalType": "address",
          "name": "_recoveryVerifier",
          "type": "address"
        },
        {
          "internalType": "bytes32",
          "name": "_recoveryKeyHash",
          "type": "bytes32"
        },
        {
          "internalType": "uint256",
          "name": "salt",
          "type": "uint256"
        }
      ],
      "name": "createExternalAccount",
      "outputs": [
        {
          "internalType": "contract Valerium",
          "name": "ret",
          "type": "address"
        }
      ],
      "stateMutability": "nonpayable",
      "type": "function"
    },
    {
      "inputs": [
        {
          "internalType": "address",
          "name": "_passkeyVerifier",
          "type": "address"
        },
        {
          "internalType": "bytes",
          "name": "_passkeyInputs",
          "type": "bytes"
        },
        {
          "internalType": "address",
          "name": "_recoveryVerifier",
          "type": "address"
        },
        {
          "internalType": "bytes32",
          "name": "_recoveryKeyHash",
          "type": "bytes32"
        },
        {
          "internalType": "uint256",
          "name": "salt",
          "type": "uint256"
        }
      ],
      "name": "getAddress",
      "outputs": [
        {
          "internalType": "address",
          "name": "",
          "type": "address"
        }
      ],
      "stateMutability": "view",
      "type": "function"
    },
    {
      "inputs": [],
      "name": "getRouter",
      "outputs": [
        {
          "internalType": "address",
          "name": "",
          "type": "address"
        }
      ],
      "stateMutability": "view",
      "type": "function"
    },
    {
      "inputs": [
        {
          "internalType": "string",
          "name": "name",
          "type": "string"
        }
      ],
      "name": "getValerium",
      "outputs": [
        {
          "components": [
            {
              "internalType": "address",
              "name": "walletAddress",
              "type": "address"
            },
            {
              "internalType": "bool",
              "name": "isUsed",
              "type": "bool"
            }
          ],
          "internalType": "struct ValeriumStorage.ValeriumDetails",
          "name": "",
          "type": "tuple"
        }
      ],
      "stateMutability": "view",
      "type": "function"
    },
    {
      "inputs": [
        {
          "internalType": "address",
          "name": "forwarder",
          "type": "address"
        }
      ],
      "name": "isTrustedForwarder",
      "outputs": [
        {
          "internalType": "bool",
          "name": "",
          "type": "bool"
        }
      ],
      "stateMutability": "view",
      "type": "function"
    },
    {
      "inputs": [],
      "name": "owner",
      "outputs": [
        {
          "internalType": "address",
          "name": "",
          "type": "address"
        }
      ],
      "stateMutability": "view",
      "type": "function"
    },
    {
      "inputs": [
        {
          "internalType": "bytes4",
          "name": "interfaceId",
          "type": "bytes4"
        }
      ],
      "name": "supportsInterface",
      "outputs": [
        {
          "internalType": "bool",
          "name": "",
          "type": "bool"
        }
      ],
      "stateMutability": "pure",
      "type": "function"
    },
    {
      "inputs": [
        {
          "internalType": "address",
          "name": "to",
          "type": "address"
        }
      ],
      "name": "transferOwnership",
      "outputs": [],
      "stateMutability": "nonpayable",
      "type": "function"
    }
  ],
  "transactionHash": "0xe5bf6f9565074cd15e0c2c89bc34a6b4a7e3e23dced73a452040d3831e08710b",
  "args": [
    "0xF694E193200268f9a4868e4Aa017A0118C9a8177",
    "0x0b9d5D9136855f6FEc3c0993feE6E9CE8a297846",
    "0x7695E854Dd22c4E609d2C62B460293599aC3757A",
    "0xADcCA523443cf9e9Cfda181872fB20D286C5ebBc",
    "0x0000000000000000000000000000000000000000",
    "0x0000000000000000000000000000000000000000",
    "0x0000000000000000000000000000000000000000"
  ],
  "numDeployments": 3,
  "solcInputHash": "a11bc8ab68aa160ae6ec4e49cf5dd44f",
  "bytecode": "0x60e06040523462000068575b620000266200001962000192565b959490949391936200029e565b6040516130f76200056082396080518161133c015260a051818181610bd90152610e04015260c0518181816105c90152818161184e015261223c01526130f790f35b62000071600080fd5b6200000b565b600080fd5b50634e487b7160e01b600052604160045260246000fd5b90601f01601f191681019081106001600160401b03821117620000b557604052565b620000bf6200007c565b604052565b90620000db620000d360405190565b928362000093565b565b6001600160a01b031690565b90565b6001600160a01b038116036200007757565b90505190620000db82620000ec565b60e08183031262000183575b620001258282620000fe565b92620001358360208401620000fe565b92620001458160408501620000fe565b92620001558260608301620000fe565b92620000e9620001698460808501620000fe565b93620001798160a08601620000fe565b9360c001620000fe565b6200018c600080fd5b62000119565b620001b562006ace80380380620001a981620000c4565b9283398101906200010d565b90919293949596565b90959492620000db9462000212620002229262000202608096620001f260a088019c60008901906001600160a01b03169052565b6001600160a01b03166020870152565b6001600160a01b03166040850152565b6001600160a01b03166060830152565b01906001600160a01b03169052565b506040513d6000823e3d90fd5b620000e990620000dd906001600160a01b031682565b620000e9906200023e565b620000e99062000254565b906200027e620000e96200029a926200025f565b82546001600160a01b0319166001600160a01b03919091161790565b9055565b95620002fe95620002e89295620002ba85620000db9a62000341565b60405195869561347787016001600160401b0381118882101762000316575b613477620036578939620001be565b03906000f0801562000306575b60c0526200025f565b60036200026a565b6200031062000231565b620002f5565b620003206200007c565b620002d9565b620000dd620000e9620000e99290565b620000e99062000326565b906200034d90620003b0565b62000359600062000336565b6001600160a01b0381166001600160a01b0383161462000379575060a052565b620003ac906200038860405190565b6335fdcccd60e21b8152918291600483016001600160a01b03909116815260200190565b0390fd5b620000db9081908190819033620003c8600062000336565b906200041c565b15620003d757565b60405162461bcd60e51b815260206004820152601860248201527f43616e6e6f7420736574206f776e657220746f207a65726f00000000000000006044820152606490fd5b6200042b620004649293608052565b620000dd6200043b600062000336565b916200045c6001600160a01b0384166001600160a01b0383161415620003cf565b60016200026a565b6001600160a01b03821603620004775750565b620000db90620004e6565b156200048a57565b60405162461bcd60e51b815260206004820152601760248201527f43616e6e6f74207472616e7366657220746f2073656c660000000000000000006044820152606490fd5b620000e990620000dd565b620000e99054620004cf565b620004fd336001600160a01b038316141562000482565b6200050a8160026200026a565b620005166001620004da565b906200054e620005477fed8889f560326eb138920d842192f0eb3dd22b4f139c87a2c57538e05bae1278936200025f565b916200025f565b916200055960405190565b600090a356fe608060405260043610156200001a575b62000018600080fd5b005b60003560e01c806301f0f46e14620001ce57806301ffc9a714620001c357806311464fbe14620001b85780634030d52114620001ad57806348b12e0f14620001a257806356f765551462000197578063572b6c05146200018c5780636159ada1146200018157806375c67c66146200017657806379ba5097146200016b57806385572ffb14620001605780638c36144d14620001555780638da5cb5b146200014a57806396d3b83d146200013f578063b0f479a11462000134578063db04fa491462000129578063dd62e7ef146200011e578063eab5b02c14620001135763f2fde38b036200000f576200010d62000d93565b6200000f565b506200010d62000d64565b506200010d62000cfa565b506200010d62000c0d565b506200010d62000bbe565b506200010d62000b8f565b506200010d62000b0d565b506200010d62000ace565b506200010d62000a68565b506200010d620009d2565b506200010d620009a0565b506200010d62000959565b506200010d62000906565b506200010d620008a2565b506200010d620007dd565b506200010d620006be565b506200010d620005ae565b506200010d620004fc565b506200010d6200046d565b600080fd5b601f01601f191690565b50634e487b7160e01b600052604160045260246000fd5b90601f01601f1916810190811067ffffffffffffffff8211176200022257604052565b6200022c620001e8565b604052565b90620002486200024060405190565b9283620001ff565b565b6200026b60209167ffffffffffffffff81116200026f57601f01601f191690565b0190565b620001de620001e8565b90826000939282370152565b9291906200024891620002a26200029c836200024a565b62000231565b94828652602086019183820111156200027957620002be600080fd5b62000279565b90620002e39181601f82011215620002e6575b60208135910162000285565b90565b620002ef600080fd5b620002d7565b90620002e39160208183031262000331575b80359067ffffffffffffffff821162000322575b01620002c4565b6200032b600080fd5b6200031b565b6200033a600080fd5b62000307565b60005b838110620003545750506000910152565b818101518382015260200162000343565b6200026b62000380926020926200037a815190565b94859290565b9384910162000340565b9052565b620003a16200026b916020949362000365565b918252565b620003be620003b460405190565b928392836200038e565b03902090565b620002e391620003a6565b620002e3905b73ffffffffffffffffffffffffffffffffffffffff1690565b620002e39054620003cf565b620002e39060a01c5b60ff1690565b620002e39054620003fa565b62000422906000620003c4565b90620002e360006200043484620003ee565b930162000409565b6200038a90620003d5565b9160206200024892949362000465604082019660008301906200043c565b019015159052565b5034620004a9575b6200048c62000486366004620002f5565b62000415565b90620004a56200049b60405190565b9283928362000447565b0390f35b620004b2600080fd5b62000475565b6001600160e01b031981165b03620001d957565b905035906200024882620004b8565b90620002e39160208183031215620004cc57620004f6600080fd5b620004cc565b503462000531575b620004a56200051f62000519366004620004db565b62000dc1565b60405191829182901515815260200190565b6200053a600080fd5b62000504565b60009103126200054c57565b62000248600080fd5b620003d5620002e3620002e39273ffffffffffffffffffffffffffffffffffffffff1690565b620002e39062000555565b620002e3906200057b565b6200038a9062000586565b60208101929162000248919062000591565b5034620005f6575b620005c336600462000540565b620004a57f00000000000000000000000000000000000000000000000000000000000000005b604051918291826200059c565b620005ff600080fd5b620005b6565b67ffffffffffffffff8116620004c4565b90503590620002488262000605565b90620002e39160208183031215620006165762000640600080fd5b62000616565b62000660620002e3620002e39267ffffffffffffffff1690565b67ffffffffffffffff1690565b90620006799062000646565b600052602052604060002090565b620002e3916008021c62000403565b90620002e3915462000687565b620002e390620006b86005916000926200066d565b62000696565b5034620006e1575b620004a56200051f620006db36600462000625565b620006a3565b620006ea600080fd5b620006c6565b620004c481620003d5565b905035906200024882620006f0565b80620004c4565b9050359062000248826200070a565b909160c082840312620007ce575b6200074e83833567ffffffffffffffff8111620007bf575b8401620002c4565b926200075e8160208501620006fb565b926200078282604083013567ffffffffffffffff8111620007b0575b8301620002c4565b92620002e3620007968460608501620006fb565b93620007a6816080860162000711565b9360a00162000711565b620007b9600080fd5b6200077a565b620007c8600080fd5b62000746565b620007d7600080fd5b6200072e565b503462000807575b620004a5620005e9620007fa36600462000720565b94939093929192620017f0565b62000810600080fd5b620007e5565b919060a08382031262000881575b620008308184620006fb565b926200085382602083013567ffffffffffffffff8111620007b0578301620002c4565b92620002e3620008678460408501620006fb565b9362000877816060860162000711565b9360800162000711565b6200088a600080fd5b62000824565b6020810192916200024891906200043c565b5034620008d6575b620004a5620008c9620008bf36600462000816565b93929092620021e1565b6040519182918262000890565b620008df600080fd5b620008aa565b90620002e39160208183031215620006fb5762000900600080fd5b620006fb565b503462000929575b620004a56200051f62000923366004620008e5565b62001332565b62000932600080fd5b6200090e565b90620006799062000586565b620002e390620006b860069160009262000938565b50346200097c575b620004a56200051f62000976366004620008e5565b62000944565b62000985600080fd5b62000961565b620002e390620006b86004916000926200066d565b5034620009c3575b620004a56200051f620009bd36600462000625565b6200098b565b620009cc600080fd5b620009a8565b5034620009f6575b620009e736600462000540565b620009f162001152565b604051005b620009ff600080fd5b620009da565b908160a091031262000a145790565b620002e3600080fd5b90620002e39160208183031262000a59575b80359067ffffffffffffffff821162000a4a575b0162000a05565b62000a53600080fd5b62000a43565b62000a62600080fd5b62000a2f565b503462000a87575b620009f162000a8136600462000a1d565b62001078565b62000a90600080fd5b62000a70565b90602080620002489362000ab3600082015160008601906200043c565b01511515910152565b60408101929162000248919062000a96565b503462000afe575b620004a562000af162000aeb366004620002f5565b620023f3565b6040519182918262000abc565b62000b07600080fd5b62000ad6565b503462000b30575b62000b2236600462000540565b620004a5620008c9620011f9565b62000b39600080fd5b62000b15565b801515620004c4565b90503590620002488262000b3f565b9190620002e39060408482031262000b80575b62000b76818562000616565b9360200162000b48565b62000b89600080fd5b62000b6a565b503462000baf575b620009f162000ba836600462000b57565b90620013b4565b62000bb8600080fd5b62000b97565b503462000bfe575b62000bd336600462000540565b620004a57f0000000000000000000000000000000000000000000000000000000000000000620008c9565b62000c07600080fd5b62000bc6565b503462000c2d575b620009f162000c2636600462000b57565b90620013e2565b62000c36600080fd5b62000c15565b91906101008382031262000ceb575b62000c57818462000616565b9262000c678260208301620006fb565b9262000c8a83604084013567ffffffffffffffff8111620007bf578401620002c4565b9262000c9a8160608501620006fb565b9262000cbd82608083013567ffffffffffffffff8111620007b0578301620002c4565b92620002e362000cd18460a08501620006fb565b9362000ce18160c0860162000711565b9360e00162000711565b62000cf4600080fd5b62000c4b565b503462000d27575b620004a5620005e962000d1736600462000c3c565b9695909594919493929362001938565b62000d30600080fd5b62000d02565b9190620002e39060408482031262000d55575b62000b768185620006fb565b62000d5e600080fd5b62000d49565b503462000d84575b620009f162000d7d36600462000d36565b9062001410565b62000d8d600080fd5b62000d6c565b503462000db2575b620009f162000dac366004620008e5565b6200109d565b62000dbb600080fd5b62000d9b565b6385572ffb60e01b6001600160e01b031982161490811562000de1575090565b6301ffc9a760e01b91506001600160e01b0319161490565b1490565b3362000e297f0000000000000000000000000000000000000000000000000000000000000000620003d5565b62000e3482620003d5565b0362000e465750620002489062001063565b62000e6c9062000e5560405190565b6335fdcccd60e21b81529182916004830162000890565b0390fd5b6020809167ffffffffffffffff811162000e8957020190565b62000e93620001e8565b020190565b91909160408184031262000edb575b62000ed562000eb7604062000231565b93600062000ec68285620006fb565b90860152602080930162000711565b90830152565b62000ee4600080fd5b62000ea7565b9092919262000efd6200029c8262000e70565b93818552604060208601920283019281841162000f42575b915b83831062000f255750505050565b602060409162000f36848662000e98565b81520192019162000f17565b62000f4b600080fd5b62000f15565b90620002e39181601f8201121562000f70575b60208135910162000eea565b62000f79600080fd5b62000f64565b9190620010319060a08482031262001047575b62000f9e60a062000231565b93600062000fad838362000711565b90860152602062000fc18382840162000616565b9086015262000fe782604083013567ffffffffffffffff8111620007b0578301620002c4565b60408601526200100e82606083013567ffffffffffffffff8111620007b0578301620002c4565b606086015260808101359067ffffffffffffffff821162001038575b0162000f51565b6080830152565b62001041600080fd5b6200102a565b62001050600080fd5b62000f92565b620002e390369062000f7f565b62001072620002489162001056565b6200175b565b620002489062000dfd565b6200024890620010926200130b565b620002489062001252565b620002489062001083565b15620010b057565b60405162461bcd60e51b815260206004820152601660248201527f4d7573742062652070726f706f736564206f776e6572000000000000000000006044820152606490fd5b9073ffffffffffffffffffffffffffffffffffffffff905b9181191691161790565b906200112b620002e3620011339262000586565b8254620010f5565b9055565b620003d5620002e3620002e39290565b620002e39062001137565b336200117f6200116d620011676002620003ee565b620003d5565b6200117883620003d5565b14620010a8565b6200118b6001620003ee565b906200119981600162001117565b620011b1620011a9600062001147565b600262001117565b620011e8620011e17f8be0079c531659141344cd1fd0a4f28419497f9722a3daafe3b4186f6b6457e09362000586565b9162000586565b91620011f360405190565b600090a3565b620002e36001620003ee565b156200120d57565b60405162461bcd60e51b815260206004820152601760248201527f43616e6e6f74207472616e7366657220746f2073656c660000000000000000006044820152606490fd5b620012746200126133620003d5565b6200126c83620003d5565b141562001205565b6200128181600262001117565b6200128d6001620003ee565b90620011e8620011e17fed8889f560326eb138920d842192f0eb3dd22b4f139c87a2c57538e05bae12789362000586565b15620012c657565b60405162461bcd60e51b815260206004820152601660248201527f4f6e6c792063616c6c61626c65206279206f776e6572000000000000000000006044820152606490fd5b62000248336200132b62001324620011676001620003ee565b91620003d5565b14620012be565b62000df9620013247f0000000000000000000000000000000000000000000000000000000000000000620003d5565b906200024891620013716200130b565b6200139c565b9060ff906200110d565b9062001394620002e36200113392151590565b825462001377565b90620013ae620002489260046200066d565b62001381565b90620002489162001361565b906200024891620013d06200130b565b90620013ae620002489260056200066d565b906200024891620013c0565b906200024891620013fe6200130b565b90620013ae6200024892600662000938565b906200024891620013ee565b905051906200024882620006f0565b90620002e391602081830312156200141c5762001446600080fd5b6200141c565b620002e39062000403565b620002e390546200144c565b602081015167ffffffffffffffff166200149c62001496604084015160206200148a825190565b8183010191016200142b565b62000586565b90620014bc620014b8620014b28360056200066d565b62001457565b1590565b6200150e5750620014d7620014b8620014b283600662000938565b620014e857506200024890620016d0565b62000e6c90620014f760405190565b6338c08ef960e11b81529182916004830162000890565b62000e6c906200151d60405190565b6326bfad9160e21b81529182916004830167ffffffffffffffff909116815260200190565b9291906200024891620015596200029c836200024a565b9482865260208601918382011115620003405762001575600080fd5b62000340565b90620002e39181601f820112156200159a575b60208151910162001542565b620015a3600080fd5b6200158e565b9050519062000248826200070a565b909160c08284031262001669575b620015e983600084015167ffffffffffffffff81116200165a575b84016200157b565b92620015f981602085016200141c565b926200161d82604083015167ffffffffffffffff81116200164b575b83016200157b565b92620002e36200163184606085016200141c565b93620016418160808601620015a9565b9360a001620015a9565b62001654600080fd5b62001615565b62001663600080fd5b620015e1565b62001672600080fd5b620015c6565b6200169d620001de6020936200026b9362001691815190565b80835293849260200190565b9586910162000340565b92916020620016c762000248936040870190878203600089015262001678565b9401906200043c565b6200171c62001496620017146200170060606200170d9501516020620016f4825190565b818301019101620015b8565b9591939890949862000586565b9262000586565b9187620017f0565b7fa15797ba1e1c0e4fea7eb08668507689b0afce684dfabbc8ecf569d71f0db77591620017566200174c60405190565b92839283620016a7565b0390a1565b620002489062001463565b620002e3620002e3620002e39290565b620017b7620017ab60609362000248969897956200179d608086019260008701906200043c565b848203602086015262001678565b9660408301906200043c565b0152565b91620002e392620017d5604082019360008301906200043c565b602081840391015262001678565b506040513d6000823e3d90fd5b95949290620018038486848685620021e1565b60009490803b6200181c620018188862001766565b9190565b116200191f575092620002489592620018a8620018f296936200189862001847620014969862001766565b96620018737f000000000000000000000000000000000000000000000000000000000000000062000586565b946200187e60405190565b639307607160e01b60208201529687946024860162001776565b60208201810382520383620001ff565b620018e2620018b660405190565b928392610656840184811067ffffffffffffffff8211176200190f575b610656620024168639620017bb565b0391f58015620019055762000586565b92620018fe8462000586565b906200236b565b62001496620017e3565b62001919620001e8565b620018d3565b945050505050620002e392935062001496915062000586565b979691959093946200171c956200195c948862001953600090565b97889c62001eee565b5062000586565b98979695949392919098600462001983620014b8620014b28d846200066d565b62001996575098620002e3989962001b76565b8a9062000e6c620019a660405190565b630a503cdb60e01b8152928392830167ffffffffffffffff909116815260200190565b90620002e39160208183031215620015a957620019e4600080fd5b620015a9565b90602080620002489362001a07600082015160008601906200043c565b0151910152565b906200026b81604093620019ea565b9062001a4062001a3962001a2f845190565b8084529260200190565b9260200190565b9060005b81811062001a525750505090565b90919262001a6f62001a68600192865162001a0e565b9460200190565b92910162001a44565b620002e391608062001ac862001ab562001aa260a085016000870151868203600088015262001678565b6020860151858203602087015262001678565b6040850151848203604086015262001a1d565b9262001add606082015160608501906200043c565b015190608081840391015262001678565b67ffffffffffffffff9091168152620002e3916040820191602081840391015262001a78565b908152604081019291620002489160200152565b90505190620002488262000b3f565b90620002e3916020818303121562001b285762001b52600080fd5b62001b28565b91602062000248929493620017b7604082019660008301906200043c565b9262001b9c9794919998959296935062001b95620014966003620003ee565b9662002046565b62001ba73062000586565b9262001bed6200149663b0f479a162001bca62001bc360405190565b9160e01b90565b81526020816004818a5afa90811562001ede575b60009162001ea9575062000586565b6320487ded9462001c0862001c0160405190565b9660e01b90565b86526020868062001c1e87876004840162001aee565b0381855afa95861562001e99575b60009662001e74575b5062001c46620014966003620003ee565b62001c956370a0823191602062001c5c60405190565b809262001c698660e01b90565b8252818062001c7c896004830162000890565b03915afa90811562001d72575b60009162001d44575090565b871162001dc457505062001ce760208094959662001cb8620014966003620003ee565b62001cda600063095ea7b362001ccd60405190565b9687958694859360e01b90565b8352896004840162001b58565b03925af1801562001db4575b62001d82575b5062001d2060006396f4e9f962001d2c62001d1360405190565b9788968795869460e01b90565b84526004840162001aee565b03925af190811562001d725760009162001d44575090565b620002e3915060203d811162001d6a575b62001d618183620001ff565b810190620019c9565b503d62001d55565b62001d7c620017e3565b62001c89565b62001da690843d811162001dac575b62001d9d8183620001ff565b81019062001b37565b62001cf9565b503d62001d91565b62001dbe620017e3565b62001cf3565b6020879262001e059262001df962001de1620014966003620003ee565b9162001dec60405190565b9586948593849360e01b90565b83526004830162000890565b03915afa90811562001e64575b60009162001e41575b5062000e6c62001e2a60405190565b634787a10360e11b81529283926004840162001b14565b62001e5d915060203d811162001d6a5762001d618183620001ff565b8262001e1b565b62001e6e620017e3565b62001e12565b62001e9191965060203d811162001d6a5762001d618183620001ff565b943862001c35565b62001ea3620017e3565b62001c2c565b62001ecf915060203d811162001ed6575b62001ec68183620001ff565b8101906200142b565b386200195c565b503d62001eba565b62001ee8620017e3565b62001bde565b620002e39796959493929190600062001963565b620002e360a062000231565b62001f1862001f02565b60608082526020820181905260408201819052600081830152608082015290565b620002e362001f0e565b91946200103162001f93620002489760a09662001f8562001f79620017b7979d9c9a9d60c08a01908a820360008c015262001678565b9260208901906200043c565b868203604088015262001678565b9860608501906200043c565b90620003a16200029c8362000e70565b620002e3604062000231565b62001fc562001faf565b906000825260006020830152565b620002e362001fbb565b60005b82811062001fed57505050565b60209062001ffa62001fd3565b818401520162001fe0565b906200024862002020620020198462001f9f565b9362000e70565b601f19016020840162001fdd565b620002e3602062000231565b906200038a90620003d5565b9490620020a9620002e397620020b6949362001031979a969a6200206962001f39565b50620020976200207860405190565b809b6200208a60208301918262000890565b9081038252038b620001ff565b6040519b8c9660208801968762001f43565b90810382520386620001ff565b6200212760009562002120620020d6620020d08962001766565b62002005565b916200211962002108620dbba062002102620020fc620020f56200202e565b9262001766565b8d830152565b6200217e565b976200211362001f02565b9a8b0152565b6020890152565b6040870152565b606085016200203a565b6200214762002141620002e39290565b60e01b90565b6001600160e01b03191690565b620002e36397a657c962002131565b51620002489152565b60208101929162000248919062002163565b620002e36004916200218e606090565b50620021b96200219d62002154565b91620021a860405190565b94859360208501908152016200216c565b60208201810382520382620001ff565b620021da90620002e3939262000365565b9062000365565b926200227390620022806200229f9362002292956200226162002212620002e39a6200220b600090565b5062001766565b986200189861065696620022296020890162000231565b9780895262002a6c60208a0139620018737f000000000000000000000000000000000000000000000000000000000000000062000586565b604051948592602084019283620017bb565b90810382520383620001ff565b604051938492602084019283620021c9565b90810382520382620001ff565b620022b3620022ac825190565b9160200190565b2090620002e391620022c53062000586565b91605592600b9291604051926040840152602083015281520160ff81532090565b620002e39051620003d5565b9074ff00000000000000000000000000000000000000009060a01b6200110d565b9062002326620002e36200113392151590565b8254620022f2565b62000248916200235890602090620023516200234a82620022e6565b8562001117565b0151151590565b9062002313565b9062000248916200232e565b90620023a262000248926200239a6001620023916200238962001faf565b95866200203a565b15156020850152565b6000620003c4565b6200235f565b9062000248620023df6000620023bd62001faf565b94620023d8620023cf838301620003ee565b8388016200203a565b0162000409565b15156020840152565b620002e390620023a8565b6200240f620002e3916200240662001fd3565b506000620003c4565b620023e856fe608060405261001561000f6101ba565b906101dc565b60405160f4610562823960f490f35b601f01601f191690565b50634e487b7160e01b600052604160045260246000fd5b90601f01601f191681019081106001600160401b0382111761006657604052565b61006e61002e565b604052565b9061008761008060405190565b9283610045565b565b600080fd5b6001600160a01b031690565b90565b6001600160a01b0381160361008957565b905051906100878261009d565b6020906100da906001600160401b0381116100de57601f01601f191690565b0190565b61002461002e565b60005b8381106100f95750506000910152565b81810151838201526020016100e9565b9291906100879161012161011c836100bb565b610073565b94828652602086019183820111156100e65761013b600080fd5b6100e6565b9061009a9181601f8201121561015c575b602081519101610109565b610164600080fd5b610151565b919061009a906040848203126101ad575b61018481856100ae565b602085015190946001600160401b0382116101a0575b01610140565b6101a8600080fd5b61019a565b6101b5600080fd5b61017a565b6101d8610656803803806101cd81610073565b928339810190610169565b9091565b610087916000916101f5565b61009a61009a61009a9290565b916101ff8361025e565b815161021261020e60006101e8565b9190565b11908115610230575b50610224575050565b61022d916103f7565b50565b90503861021b565b61009a9061008e906001600160a01b031682565b61009a90610238565b61009a9061024c565b61026781610360565b6102917fbc7cd75a20ee27fd9adebab32041f755214dbc6bffa90cc0225b39da2e5c2d3b91610255565b9061029b60405190565b600090a2565b156102a857565b60405162461bcd60e51b815260206004820152602d60248201527f455243313936373a206e657720696d706c656d656e746174696f6e206973206e60448201526c1bdd08184818dbdb9d1c9858dd609a1b6064820152608490fd5b0390fd5b61009a7f360894a13ba1a3210667c828492db98dca3e2076cc3735a920a3ca505d382bbc6101e8565b9061034061009a61035c92610255565b82546001600160a01b0319166001600160a01b03919091161790565b9055565b6100879061037561037082610388565b6102a1565b600061038261009a610307565b01610330565b3b61039661020e60006101e8565b1190565b906103a761011c836100bb565b918252565b6103b6602761039a565b7f416464726573733a206c6f772d6c6576656c2064656c65676174652063616c6c6020820152660819985a5b195960ca1b604082015290565b61009a6103ac565b61009a916104036103ef565b91610428565b3d15610423576104183d61039a565b903d6000602084013e565b606090565b60008061009a9493610438606090565b50805190602001845af461044a610409565b9161049c565b1561045757565b60405162461bcd60e51b815260206004820152601d60248201527f416464726573733a2063616c6c20746f206e6f6e2d636f6e74726163740000006044820152606490fd5b9192606091156104d157505081516104b761020e60006101e8565b146104c0575090565b6104cc61009a91610388565b610450565b9093926100879250610519565b6104ff6100246020936100da936104f3815190565b80835293849260200190565b958691016100e6565b602080825261009a929101906104de565b9150610523825190565b61053061020e60006101e8565b111561053f5750805190602001fd5b6103039061054c60405190565b62461bcd60e51b81529182916004830161050856fe608060405236156012575b6010601c565b005b6018601c565b600a565b60226024565b565b6022602c6030565b609c565b6036608b565b90565b6036603660369290565b60367f360894a13ba1a3210667c828492db98dca3e2076cc3735a920a3ca505d382bbc6039565b73ffffffffffffffffffffffffffffffffffffffff1690565b60369054606a565b60366000609760366043565b016083565b600091508190368280378136915af43d6000803e1560b9573d6000f35b3d6000fdfea2646970667358221220c2b74ecbc475318d9ba662d544ad2e1831b3606ff76cd117bfc54e36cefc601a64736f6c63430008110033608060405261001561000f6101ba565b906101dc565b60405160f4610562823960f490f35b601f01601f191690565b50634e487b7160e01b600052604160045260246000fd5b90601f01601f191681019081106001600160401b0382111761006657604052565b61006e61002e565b604052565b9061008761008060405190565b9283610045565b565b600080fd5b6001600160a01b031690565b90565b6001600160a01b0381160361008957565b905051906100878261009d565b6020906100da906001600160401b0381116100de57601f01601f191690565b0190565b61002461002e565b60005b8381106100f95750506000910152565b81810151838201526020016100e9565b9291906100879161012161011c836100bb565b610073565b94828652602086019183820111156100e65761013b600080fd5b6100e6565b9061009a9181601f8201121561015c575b602081519101610109565b610164600080fd5b610151565b919061009a906040848203126101ad575b61018481856100ae565b602085015190946001600160401b0382116101a0575b01610140565b6101a8600080fd5b61019a565b6101b5600080fd5b61017a565b6101d8610656803803806101cd81610073565b928339810190610169565b9091565b610087916000916101f5565b61009a61009a61009a9290565b916101ff8361025e565b815161021261020e60006101e8565b9190565b11908115610230575b50610224575050565b61022d916103f7565b50565b90503861021b565b61009a9061008e906001600160a01b031682565b61009a90610238565b61009a9061024c565b61026781610360565b6102917fbc7cd75a20ee27fd9adebab32041f755214dbc6bffa90cc0225b39da2e5c2d3b91610255565b9061029b60405190565b600090a2565b156102a857565b60405162461bcd60e51b815260206004820152602d60248201527f455243313936373a206e657720696d706c656d656e746174696f6e206973206e60448201526c1bdd08184818dbdb9d1c9858dd609a1b6064820152608490fd5b0390fd5b61009a7f360894a13ba1a3210667c828492db98dca3e2076cc3735a920a3ca505d382bbc6101e8565b9061034061009a61035c92610255565b82546001600160a01b0319166001600160a01b03919091161790565b9055565b6100879061037561037082610388565b6102a1565b600061038261009a610307565b01610330565b3b61039661020e60006101e8565b1190565b906103a761011c836100bb565b918252565b6103b6602761039a565b7f416464726573733a206c6f772d6c6576656c2064656c65676174652063616c6c6020820152660819985a5b195960ca1b604082015290565b61009a6103ac565b61009a916104036103ef565b91610428565b3d15610423576104183d61039a565b903d6000602084013e565b606090565b60008061009a9493610438606090565b50805190602001845af461044a610409565b9161049c565b1561045757565b60405162461bcd60e51b815260206004820152601d60248201527f416464726573733a2063616c6c20746f206e6f6e2d636f6e74726163740000006044820152606490fd5b9192606091156104d157505081516104b761020e60006101e8565b146104c0575090565b6104cc61009a91610388565b610450565b9093926100879250610519565b6104ff6100246020936100da936104f3815190565b80835293849260200190565b958691016100e6565b602080825261009a929101906104de565b9150610523825190565b61053061020e60006101e8565b111561053f5750805190602001fd5b6103039061054c60405190565b62461bcd60e51b81529182916004830161050856fe608060405236156012575b6010601c565b005b6018601c565b600a565b60226024565b565b6022602c6030565b609c565b6036608b565b90565b6036603660369290565b60367f360894a13ba1a3210667c828492db98dca3e2076cc3735a920a3ca505d382bbc6039565b73ffffffffffffffffffffffffffffffffffffffff1690565b60369054606a565b60366000609760366043565b016083565b600091508190368280378136915af43d6000803e1560b9573d6000f35b3d6000fdfea2646970667358221220c2b74ecbc475318d9ba662d544ad2e1831b3606ff76cd117bfc54e36cefc601a64736f6c63430008110033a26469706673582212200a7ef3826d9a6a4adc25e141b21da523f9add2d40cc847480583759c565f9bd664736f6c6343000811003360a0604052346200003e575b62000023620000196200014a565b93929092620001d4565b60405161325762000220823960805181611341015261325790f35b62000047600080fd5b6200000b565b600080fd5b50634e487b7160e01b600052604160045260246000fd5b90601f01601f191681019081106001600160401b038211176200008b57604052565b6200009562000052565b604052565b90620000b1620000a960405190565b928362000069565b565b6001600160a01b031690565b90565b6001600160a01b038116036200004d57565b90505190620000b182620000c2565b919060a0838203126200013b575b620000fd8184620000d4565b926200010d8260208301620000d4565b92620000bf620001218460408501620000d4565b93620001318160608601620000d4565b93608001620000d4565b62000144600080fd5b620000f1565b6200016d620034778038038062000161816200009a565b928339810190620000e3565b9091929394565b620000bf90620000b3906001600160a01b031682565b620000bf9062000174565b620000bf906200018a565b90620001b4620000bf620001d09262000195565b82546001600160a01b0319166001600160a01b03919091161790565b9055565b620002179262000207620000b1969593620001ff6200020f94620001f781608052565b6006620001a0565b6007620001a0565b6008620001a0565b6009620001a0565b600a620001a056fe60806040526004361015610018575b361561001657005b005b60003560e01c806223de29146102ab57806301ffc9a7146102a2578063150b7a02146102995780631d7d7f7814610290578063292105aa146102875780632a1690cb1461027e5780632b6ae8e4146102755780632c74b3491461026c5780633e43b0b6146102635780634e4d520c1461025a5780635014587114610251578063572b6c05146102485780635db6fd551461023f5780636420f9e71461023657806364ddaf191461022d57806366cab694146102245780637659accb1461021b5780637a01280314610212578063889e9a88146102095780638e5e5ded146102005780638ee06ddd146101f757806393076071146101ee578063b1c660f7146101e5578063b42f1bf5146101dc578063bc197c81146101d3578063ce6d41de146101ca578063d4b15105146101c1578063dcb7970f146101b8578063e3046c81146101af578063e3aa66b2146101a6578063e78207c81461019d578063eeb4bafe146101945763f23a6e610361000e5761018f611303565b61000e565b5061018f611278565b5061018f61120c565b5061018f6111e2565b5061018f6111ac565b5061018f611182565b5061018f611167565b5061018f61113d565b5061018f611109565b5061018f611050565b5061018f610f6c565b5061018f610f30565b5061018f610eb2565b5061018f610e88565b5061018f610e61565b5061018f610dad565b5061018f610cef565b5061018f610ba7565b5061018f610b70565b5061018f610b23565b5061018f610a95565b5061018f610a4e565b5061018f610a10565b5061018f6109ef565b5061018f610918565b5061018f6108ee565b5061018f6108ac565b5061018f610829565b5061018f61078d565b5061018f610585565b5061018f610506565b5061018f61046d565b5061018f6103fb565b600080fd5b6001600160a01b031690565b90565b6001600160a01b0381165b036102b457565b905035906102e7826102c8565b565b806102d3565b905035906102e7826102e9565b909182601f83011215610340575b602082359267ffffffffffffffff8411610333575b01928284011161032b57565b6102e7600080fd5b61033b600080fd5b61031f565b610348600080fd5b61030a565b9060c0828203126103ee575b61036381836102da565b9261037182602085016102da565b9261037f83604083016102da565b9261038d81606084016102ef565b926103d06103b183608086013567ffffffffffffffff81116103e1575b86016102fc565b93909460a08101359067ffffffffffffffff82116103d4575b016102fc565b9091565b6103dc600080fd5b6103ca565b6103e9600080fd5b6103aa565b6103f6600080fd5b610359565b5034610422575b61040d36600461034d565b505050505050505061001660405190565b0390f35b61042a600080fd5b610402565b6001600160e01b031981166102d3565b905035906102e78261042f565b906102c5916020818303121561043f57610464600080fd5b61043f565b9052565b503461049c575b61041e61048a61048536600461044c565b613039565b60405191829182901515815260200190565b6104a4600080fd5b610474565b6080818303126104f9575b6104be82826102da565b926103d06104cf84602085016102da565b936104dd81604086016102ef565b9360608101359067ffffffffffffffff82116103d457016102fc565b610501600080fd5b6104b4565b5034610542575b61041e61052761051e3660046104a9565b93929092612fea565b604051918291826001600160e01b0319909116815260200190565b61054a600080fd5b61050d565b600091031261032b57565b6102c5916008021c6001600160a01b031690565b906102c5915461055a565b6102c56000600661056e565b50346105bc575b61059736600461054f565b61041e6105a2610579565b604051918291826001600160a01b03909116815260200190565b6105c4600080fd5b61058c565b601f01601f191690565b50634e487b7160e01b600052604160045260246000fd5b90601f01601f1916810190811067ffffffffffffffff82111761060c57604052565b6106146105d3565b604052565b906102e761062660405190565b92836105ea565b61064c60209167ffffffffffffffff811161065057601f01601f191690565b0190565b6105c96105d3565b90826000939282370152565b9291906102e79161067c6106778361062d565b610619565b948286526020860191838201111561065857610696600080fd5b610658565b906102c59181601f820112156106b7575b602081359101610664565b6106bf600080fd5b6106ac565b6001600160f81b031981166102d3565b905035906102e7826106c4565b919060a083820312610780575b61070b81843567ffffffffffffffff8111610773575b850161069b565b9261071982602083016106d4565b926102c561073c84604085013567ffffffffffffffff811161077357850161069b565b9361075d81606086013567ffffffffffffffff8111610766575b860161069b565b936080016102ef565b61076e600080fd5b610756565b61077b600080fd5b610704565b610788600080fd5b6106ee565b50346107be575b61041e6107ae6107a53660046106e1565b93929092612c1b565b6040519182918290815260200190565b6107c6600080fd5b610794565b60005b8381106107de5750506000910152565b81810151838201526020016107ce565b61080f6105c960209361064c93610803815190565b80835293849260200190565b958691016107cb565b60208082526102c5929101906107ee565b5034610852575b61083b36600461054f565b61041e610846612891565b60405191829182610818565b61085a600080fd5b610830565b6102c56002600061056e565b6102b96102c56102c5926001600160a01b031690565b6102c59061086b565b6102c590610881565b6104699061088a565b6020810192916102e79190610893565b50346108d5575b6108be36600461054f565b61041e6108c961085f565b6040519182918261089c565b6108dd600080fd5b6108b3565b6102c56000600761056e565b503461090b575b61090036600461054f565b61041e6105a26108e2565b610913600080fd5b6108f5565b5034610935575b61092a36600461054f565b61041e610846612ef1565b61093d600080fd5b61091f565b91909160c0818403126109e2575b61096d83823567ffffffffffffffff81116109d5575b83016102fc565b9290936102c561098082602086016102da565b9361098e83604083016102ef565b936109af84606084013567ffffffffffffffff81116109c8575b84016102fc565b9390946109bf81608086016102ef565b9360a0016102ef565b6109d0600080fd5b6109a8565b6109dd600080fd5b610966565b6109ea600080fd5b610950565b5061041e61048a610a01366004610942565b969590959491949392936119e9565b5061041e61048a610a22366004610942565b96959095949194939293611fba565b906102c591602081830312156102da57610a49600080fd5b6102da565b5034610a6b575b61041e61048a610a66366004610a31565b611334565b610a73600080fd5b610a55565b906102c591602081830312156102ef57610a90600080fd5b6102ef565b5034610ab2575b61041e6107ae610aad366004610a78565b611c83565b610aba600080fd5b610a9c565b91604083830312610b16575b6102c5610aea83853567ffffffffffffffff81116103e15786016102fc565b93909460208101359067ffffffffffffffff8211610b09575b0161069b565b610b11600080fd5b610b03565b610b1e600080fd5b610acb565b5061041e61048a610b35366004610abf565b916117fb565b906103d091602081830312610b63575b80359067ffffffffffffffff82116103d457016102fc565b610b6b600080fd5b610b4b565b5034610b8e575b61041e61048a610b88366004610b3b565b90612f92565b610b96600080fd5b610b77565b6102c56000600961056e565b5034610bc4575b610bb936600461054f565b61041e6105a2610b9b565b610bcc600080fd5b610bae565b909182601f83011215610c10575b602082359267ffffffffffffffff8411610c03575b01926020830284011161032b57565b610c0b600080fd5b610bf4565b610c18600080fd5b610bdf565b91608083830312610ce2575b610c4682843567ffffffffffffffff8111610cd5575b85016102fc565b929093610c6982602083013567ffffffffffffffff8111610cc8575b8301610bd1565b9290936103d0610c8f83604086013567ffffffffffffffff8111610cbb575b8601610bd1565b93909460608101359067ffffffffffffffff8211610cae575b01610bd1565b610cb6600080fd5b610ca8565b610cc3600080fd5b610c88565b610cd0600080fd5b610c62565b610cdd600080fd5b610c3f565b610cea600080fd5b610c29565b5061041e61048a610d01366004610c1d565b96959095949194939293611760565b906102c591602081830312610d38575b80359067ffffffffffffffff8211610b09570161069b565b610d40600080fd5b610d20565b9695939094610d9b610d8860a095610d7a8b610da897610d6d6102e79c600060c08501940152565b8d820360208f01526107ee565b908b820360408d01526107ee565b6001600160f81b031990931660608a0152565b87820360808901526107ee565b940152565b5034610de3575b61041e610dca610dc5366004610d10565b612ba3565b92610dda96949692919260405190565b96879687610d45565b610deb600080fd5b610db4565b90608082820312610e54575b610e1881833567ffffffffffffffff81116109c85784016102fc565b9290936102c5610e3d84602085013567ffffffffffffffff811161077357850161069b565b93610e4b81604086016102ef565b936060016102ef565b610e5c600080fd5b610dfc565b5061041e61048a610e73366004610df0565b93929092611b71565b6102c56000600361056e565b5034610ea5575b610e9a36600461054f565b61041e6108c9610e7c565b610ead600080fd5b610e8f565b5034610ed0575b61041e61048a610eca366004610b3b565b90612966565b610ed8600080fd5b610eb9565b608081830312610f23575b610ef282826102da565b926102c5610f1584602085013567ffffffffffffffff811161077357850161069b565b93610e4b81604086016102da565b610f2b600080fd5b610ee8565b5034610f53575b610f4e610f45366004610edd565b929190916115b0565b604051005b610f5b600080fd5b610f37565b6102c56000600861056e565b5034610f89575b610f7e36600461054f565b61041e6105a2610f60565b610f91600080fd5b610f73565b9060c082820312611043575b610fbe81833567ffffffffffffffff81116109c85784016102fc565b929093610fe183602084013567ffffffffffffffff8111611029575b8401610bd1565b9290936102c561100782604085013567ffffffffffffffff8111611036575b8501610bd1565b9390946109af84606084013567ffffffffffffffff8111611029578401610bd1565b611031600080fd5b610fda565b61103e600080fd5b611000565b61104b600080fd5b610fa2565b5061041e61048a611062366004610f96565b98979097969196959295949394612028565b909160a0828403126110fc575b61108b83836102da565b9261109981602085016102da565b926110b982604083013567ffffffffffffffff8111610cc8578301610bd1565b9290936103d06110de83606086013567ffffffffffffffff8111610cbb578601610bd1565b93909460808101359067ffffffffffffffff82116103d457016102fc565b611104600080fd5b611081565b5034611130575b61041e610527611121366004611074565b9695909594919493929361301d565b611138600080fd5b611110565b503461115a575b61114f36600461054f565b61041e6107ae612a50565b611162600080fd5b611144565b5061041e61048a611179366004610df0565b9392909261208d565b503461119f575b61119436600461054f565b61041e61084661254c565b6111a7600080fd5b611189565b50346111c9575b61041e6107ae6111c4366004610d10565b612f51565b6111d1600080fd5b6111b3565b6102c56000600a61056e565b50346111ff575b6111f436600461054f565b61041e6105a26111d6565b611207600080fd5b6111e9565b5061041e61048a61121e366004610f96565b98979097969196959295949394611b08565b9060808282031261126b575b61125881833567ffffffffffffffff81116109c85784016102fc565b9290936103d06104cf84602085016102da565b611273600080fd5b61123c565b5061041e61048a61128a366004611230565b94939093929192611713565b919060a0838203126112f6575b6112ad81846102da565b926112bb82602083016102da565b926103d06112cc84604085016102ef565b936112da81606086016102ef565b9360808101359067ffffffffffffffff82116103d457016102fc565b6112fe600080fd5b6112a3565b5034611327575b61041e61052761131b366004611296565b94939093929192613003565b61132f600080fd5b61130a565b61136f6001600160a01b037f0000000000000000000000000000000000000000000000000000000000000000165b916001600160a01b031690565b1490565b6102c59060081c5b60ff1690565b6102c59054611373565b6102c59061137b565b6102c5905461138b565b61137b6102c56102c59290565b156113b257565b60405162461bcd60e51b815260206004820152602e60248201527f496e697469616c697a61626c653a20636f6e747261637420697320616c72656160448201527f647920696e697469616c697a65640000000000000000000000000000000000006064820152608490fd5b9060ff905b9181191691161790565b61137b6102c56102c59260ff1690565b9061144c6102c56114539261142c565b825461141d565b9055565b9061ff009060081b611422565b906114746102c561145392151590565b8254611457565b6104699061139e565b6020810192916102e7919061147b565b926114e391926114ab6114a76000611381565b1590565b938480611586575b8015611541575b6114c3906113ab565b600195856114da6114d38961139e565b600061143c565b611531576115a4565b6114ea5750565b6114f5600080611464565b61152c7f7f26b83ff96e1f2b6a682f133852f6798a09c465da95921460cefb38474024989161152360405190565b91829182611484565b0390a1565b61153c876000611464565b6115a4565b506115566114a76115513061088a565b6115c9565b80156114ba57506114c361156a6000611394565b61157e611577600161139e565b9160ff1690565b1490506114ba565b506115916000611394565b61159e611577600161139e565b106114b3565b906102e79392916115df565b906102e7939291611494565b6102c56102c56102c59290565b3b6115db6115d760006115bc565b9190565b1190565b6102e79392916115ee9161251d565b612ed3565b6102c5906102b9565b6102c590546115f3565b1561160d57565b60405162461bcd60e51b815260206004820152602c60248201527f56616c657269756d20466f727761726465722063616e6e6f742063616c6c207460448201527f6869732066756e6374696f6e00000000000000000000000000000000000000006064820152608490fd5b906102c596959493929161169d336116966113626102b960066115fc565b1415611606565b6116ee565b156116a957565b60405162461bcd60e51b815260206004820152600f60248201527f496e76616c696420706173736b657900000000000000000000000000000000006044820152606490fd5b61170e9695949392611709926117049250612a03565b6116a2565b6120a7565b600190565b6102c59594939291906000611678565b906102c59897969594939291611743336116966113626102b960066115fc565b61170e9897969594939261175b926117049250612a03565b612188565b6102c597969594939291906000611723565b906102c593929161178d336116966113626102b960066115fc565b6117de565b1561179957565b60405162461bcd60e51b815260206004820152601060248201527f496e76616c6964207265636f76657279000000000000000000000000000000006044820152606490fd5b61170e93926117f6926117f19250612fc3565b611792565b6128a7565b6102c59291906000611772565b1561180f57565b60405162461bcd60e51b815260206004820152602e60248201527f4f6e6c792056616c657269756d20466f727761726465722063616e2063616c6c60448201527f20746869732066756e6374696f6e0000000000000000000000000000000000006064820152608490fd5b906102c598979695949392916118a03361189a6113626102b960066115fc565b14611808565b611953565b50634e487b7160e01b600052601160045260246000fd5b91906118c7565b9290565b82018092116118d257565b6102e76118a5565b156118e157565b60405162461bcd60e51b815260206004820152600f60248201527f4e6f7420656e6f756768206665657300000000000000000000000000000000006044820152606490fd5b919082039182116118d257565b818102929181159184041417156118d257565b506040513d6000823e3d90fd5b9061199c600099978a9995976119b0978b9a996119ab976119958d9c6119a4995061198e6115d76102c5876119873061088a565b31946118bc565b10156118da565b5a96611713565b505a90611926565b3a90611933565b6118bc565b6119c56119c06119c060076115fc565b61088a565b8282156119e0575bf1156119d857600190565b61170e611946565b506108fc6119cd565b6102c59796959493929190600061187a565b906102c59a999897969594939291611a1d3361189a6113626102b960066115fc565b611a74565b6001906000198114611a32570190565b61064c6118a5565b50634e487b7160e01b600052603260045260246000fd5b91602091811015611a62575b020190565b611a5d611a3a565b356102c5816102e9565b989496919792959893909350600095611a8c876115bc565b98895b8b8b1015611ace579b89611ac4611abe8e9f8e9f9e8f611ab891611ab39187611a51565b611a6a565b906118bc565b9d611a22565b9b50509b9a611a8f565b889c899c918a9c50946119a497946119ab999794611b016119b09d9e9461198e6115d76102c561199c9c6119873061088a565b5a98611760565b6102c59998979695949392919060006119fb565b906102c59594939291611b393361189a6113626102b960066115fc565b936119ab6119a46119b09361199c600099978a9997611b6a8b9a8b9a5061198e6115d7611b653061088a565b319290565b5a936117fb565b6102c594939291906000611b1c565b69ffffffffffffffffffff81166102d3565b905051906102e782611b80565b905051906102e7826102e9565b919060a083820312611bf9575b611bc38184611b92565b92611bd18260208301611b9f565b926102c5611be28460408501611b9f565b93611bf08160608601611b9f565b93608001611b92565b611c01600080fd5b611bb9565b50634e487b7160e01b600052601260045260246000fd5b8115611c45575b600160ff1b8114600019831416611c39570590565b611c416118a5565b0590565b611c4d611c06565b611c24565b8181029291600160ff1b81146000831216611c76575b81840514901517156118d257565b611c7e6118a5565b611c68565b6102c590611d1d611cfe611c9a6119c0600a6115fc565b611cb0611caa6119c060096115fc565b9161088a565b63feaf968c60a0611cc060405190565b8093611ccc8460e01b90565b825260049082905afa918215611d8b575b600092611d63575b50611cf260a0929361088a565b60405194859260e01b90565b825260049082905afa918215611d56575b600092611d23575b50611c1d565b90611c52565b611d4591925060a03d8111611d4f575b611d3d81836105ea565b810190611bac565b5050509190611d17565b503d611d33565b611d5e611946565b611d0f565b60a09250611d80611cf291843d8111611d4f57611d3d81836105ea565b505050935050611ce5565b611d93611946565b611cdd565b906102c59897969594939291611db83361189a6113626102b960066115fc565b611e29565b906102c59160208183031215611b9f57611dd5600080fd5b611b9f565b8015156102d3565b905051906102e782611dda565b906102c59160208183031215611de257611e07600080fd5b611de2565b6001600160a01b0390911681526040810192916102e79160200152565b610aad96611ec996611ec999966119ab966119a496611995611e9f611ece9f61199c98506020611e5f6119c06119c060086115fc565b6370a0823190611e88611e713061088a565b92611e7b60405190565b9687948593849360e01b90565b83526001600160a01b031660048301526024820190565b03915afa918215611fad575b600092611f69575b506115d76102c5611ec9610aad61198e946115bc565b6115bc565b6020611ee06119c06119c060086115fc565b63a9059cbb90611f0f6000611ef560076115fc565b93611f1a611f0260405190565b9788968795869460e01b90565b845260048401611e0c565b03925af18015611f5c575b611f30575b50600190565b611f509060203d8111611f55575b611f4881836105ea565b810190611def565b611f2a565b503d611f3e565b611f64611946565b611f25565b61198e9192506102c5611ec9610aad611f9b6115d79460203d8111611fa6575b611f9381836105ea565b810190611dbd565b959450505050611eb3565b503d611f89565b611fb5611946565b611eab565b6102c597969594939291906000611d98565b906102c59a999897969594939291611fee3361189a6113626102b960066115fc565b96611ec999966119ab966119a496610aad9b949661199c96611ece9f611e9f611b0191611ec99f506020611e5f6119c06119c060086115fc565b6102c5999897969594939291906000611fcc565b906102c595949392916120593361189a6113626102b960066115fc565b6119a4611ec9959261199c610aad96611ec996611b6a611e9f611ece9c6119ab98506020611e5f6119c06119c060086115fc565b6102c59493929190600061203c565b6102c5913691610664565b916102e7936120b59161209c565b916122e4565b156120c257565b60405162461bcd60e51b815260206004820152601360248201527f77726f6e67206172726179206c656e67746873000000000000000000000000006044820152606490fd5b356102c5816102c8565b903590601e193682900301821215612155575b01602081359167ffffffffffffffff8311612148575b019136829003831361032b57565b612150600080fd5b61213a565b61215d600080fd5b612124565b906103d09260209181101561217b575b02810190612111565b612183611a3a565b612172565b9091949293956121958390565b956121a9858814868161228a575b506120bb565b856000966121b96115d7896115bc565b036122265750506121c9856115bc565b865b81101561221c57612215816122108a6120b56121fe848b6121f86121f36121cb9a8e8e611a51565b612107565b94612162565b61220a8d9392936115bc565b9261209c565b611a22565b90506121c9565b5095505050505050565b939291909795612235906115bc565b875b81101561227f57612278816122108b8a6120b5612272858d6121f8611ab38f9b8f9c8f6121f36122379f849061226c93611a51565b99611a51565b9061209c565b9050612235565b509650505050505050565b90508761229760006115bc565b81149182156122a9575b5050386121a3565b91501438806122a1565b906122c06106778361062d565b918252565b3d156122df576122d43d6122b3565b903d6000602084013e565b606090565b6000928392602082019151925af16123026122fd6122c5565b911590565b6123095750565b602081519101fd5b9075ffffffffffffffffffffffffffffffffffffffff00009060101b611422565b906123426102c56114539261088a565b8254612311565b50634e487b7160e01b600052602260045260246000fd5b9060016002830492168015612383575b602083101461237b57565b6102e7612349565b91607f1691612370565b9160001960089290920291821b911b611422565b91906123b26102c5611453936115bc565b90835461238d565b6102e7916000916123a1565b8181106123d1575050565b806123df60006001936123ba565b016123c6565b9190601f81116123f457505050565b6124066102e793600052602060002090565b906020601f840181900483019310612428575b6020601f9091010401906123c6565b9091508190612419565b9061243b815190565b9067ffffffffffffffff8211612506575b6124608261245a8554612360565b856123e5565b602090601f831160011461249b57611453929160009183612490575b5050600019600883021c1916906002021790565b01519050388061247c565b601f198316916124b085600052602060002090565b9260005b8181106124ee575091600293918560019694106124d5575b50505002019055565b01516000196008601f8516021c191690553880806124cc565b919360206001819287870151815501950192016124b4565b61250e6105d3565b61244c565b906102e791612432565b9061253461252d6102e79361088a565b6000612332565b6001612513565b6102c59081565b6102c5905461253b565b6102c56125596002612542565b61259c565b369037565b906102e7612579612573846122b3565b9361062d565b601f19016020840161255e565b8115612590570490565b612598611c06565b0490565b6125a581612635565b906125b560019261064c846115bc565b91806125c084612563565b936020018401905b6125d3575b50505090565b6126149060001901927f3031323334353637383961626364656600000000000000000000000000000000600a82061a845361260e600a6115bc565b90612586565b90816126236115d760006115bc565b14612630579091816125c8565b6125cd565b61263f60006115bc565b907a184f03e93ff9f4daa797ed6e38ed64bf6a1f010000000000000000612665816115bc565b8210156127b7575b506d04ee2d6d415b85acef8100000000612686816115bc565b821015612795575b50662386f26fc100006126a0816115bc565b821015612773575b506305f5e1006126b7816115bc565b821015612751575b506127106126cc816115bc565b82101561272f575b5060646126e0816115bc565b82101561270d575b506126f66115d7600a6115bc565b10156126ff5790565b6102c59061064c60016115bc565b6127289161260e61271d926115bc565b9161064c60026115bc565b90386126e8565b61274a9161260e61273f926115bc565b9161064c60046115bc565b90386126d4565b61276c9161260e612761926115bc565b9161064c60086115bc565b90386126bf565b61278e9161260e612783926115bc565b9161064c60106115bc565b90386126a8565b6127b09161260e6127a5926115bc565b9161064c60206115bc565b903861268e565b6127d29161260e6127c7926115bc565b9161064c60406115bc565b903861266d565b805460009392916127f66127ec83612360565b8085529360200190565b9160018116908115612848575060011461280f57505050565b6128229192939450600052602060002090565b916000925b8184106128345750500190565b805484840152602090930192600101612827565b92949550505060ff1916825215156020020190565b906102c5916127d9565b906102e76128819261287860405190565b9384809261285d565b03836105ea565b6102c590612867565b61289e610dc56001612888565b50505050905090565b6102e7906001612513565b6102c59060101c6102b9565b6102c590546128b2565b91906105c9816128df8161064c9560209181520190565b8095610658565b906129066128ff6128f5845190565b8084529260200190565b9260200190565b9060005b8181106129175750505090565b90919261293461292d6001928651815260200190565b9460200190565b92910161290a565b916102c5939161295891604085019185830360008701526128c8565b9160208184039101526128e6565b60209061298c612974612a50565b612981610dc56001612888565b5050505050906130e2565b6129bc61299c6119c060006128be565b916129c763ea50d0e4916129af60405190565b9788968795869560e01b90565b85526004850161293c565b03915afa9081156129f6575b6000916129de575090565b6102c5915060203d8111611f5557611f4881836105ea565b6129fe611946565b6129d3565b612a109161170491612966565b611f2a612a39565b9060001990611422565b90612a326102c5611453926115bc565b8254612a18565b61254c612a496122106002612542565b6002612a22565b6102c5612a60610dc56001612888565b9450919250612a6d61254c565b92612c1b565b9291906102e791612a866106778361062d565b94828652602086019183820111156107cb57612aa0600080fd5b6107cb565b906102c59181601f82011215612ac1575b602081519101612a73565b612ac9600080fd5b612ab6565b905051906102e7826106c4565b909160c082840312612b96575b612af28383611b9f565b92612b1381602085015167ffffffffffffffff8111612b89575b8501612aa5565b92612b3482604083015167ffffffffffffffff8111612b7c575b8301612aa5565b926102c5612b458460608501612ace565b93612b6681608086015167ffffffffffffffff8111612b6f575b8601612aa5565b9360a001611b9f565b612b77600080fd5b612b5f565b612b84600080fd5b612b2d565b612b91600080fd5b612b0c565b612b9e600080fd5b612ae8565b612bbc906020612bb1825190565b818301019101612adb565b94959394929391929091565b906001602091612bd6845190565b811015612be4575b02010190565b612bec611a3a565b612bde565b61064c612c0992602092612c03815190565b94859290565b938491016107cb565b6102c591612bf1565b90919392612c27600090565b50602092612c72612c6482612c55612c47612c41896115bc565b88612bc8565b516001600160f81b03191690565b16926001600160f81b03191690565b916001600160f81b03191690565b03612dd857612c87612c82825190565b612563565b612d066115d7612c95835190565b93612caf60009885612ca68b6115bc565b9788928d612df1565b50612cd7612cbc60405190565b8092612ccb8a83019182612c12565b908103825203826105ea565b612ce9612ce2825190565b9160200190565b2092612cf7612cbc60405190565b612d02612ce2825190565b2090565b03612dc657612d58612d4b612da2926102c597858789612d34612c82612d2b839b5190565b611ab8856115bc565b968794612d4b8787612d44885190565b8289612df1565b5060405191829182612c12565b039060025afa15612db9575b8651612d929091612d8e612d7760405190565b8b81019485526020808252909485900301846105ea565b5190565b92612d9c896115bc565b91612df1565b039060025afa15612db1575190565b612d8e611946565b612dc1611946565b612d64565b60405163ebab5d2960e01b8152600490fd5b604051637e49a3c960e11b8152600490fd5b156102b457565b90929194612dfd606090565b50612e20612e0b86886118bc565b612e196115d76118c3875190565b1015612dea565b602095612e3d612e33866119ab8a6115bc565b966119ab896115bc565b955b612e536102c5836119ab896119ab8d6115bc565b811015612e9457612e53916119ab612e89836102c5948801518b8a0152612e83612e7c8d6115bc565b80926118bc565b9a6118bc565b989250509150612e3f565b505094505091505090565b906001600160a01b0390611422565b90612ebe6102c56114539261088a565b8254612e9f565b90612a326102c56114539290565b90612eea612ee36102e79361088a565b6003612eae565b6004612ec5565b6102c56125596005612542565b612f08601a6122b3565b7f19457468657265756d205369676e6564204d6573736167653a0a000000000000602082015290565b6102c5612efe565b91612f4b6102c59493612f4b93612bf1565b90612bf1565b6102c5612cf791612f60600090565b506102c5612f6c612f31565b612f77612559845190565b90612ccb612f8460405190565b948593602085019384612f39565b602090612fb3612fa36111c4612ef1565b612fad6004612542565b906130e2565b6129bc61299c6119c060036115fc565b612fd0916117f191612f92565b611f2a612ef1612fe36122106005612542565b6005612a22565b5050505050612ff7600090565b50630a85bd0160e11b90565b505050505050613011600090565b5063f23a6e6160e01b90565b505050505050505061302d600090565b5063bc197c8160e01b90565b630a85bd0160e11b6001600160e01b0319821614908115613077575b811561305f575090565b6301ffc9a760e01b91506001600160e01b0319161490565b6001600160e01b03198116630271189760e51b149150613055565b6020809167ffffffffffffffff81116130aa57020190565b611a5d6105d3565b906122c061067783613092565b906102e76125796130cf846130b2565b93613092565b9060208091612bd6845190565b916130f56130f060406115bc565b6130bf565b90600090613102826115bc565b602061310d816115bc565b82101561315b57906131499181101561314e575b61221061313c6001600160f81b031989841a60f81b166131f9565b61314683886130d5565b52565b613102565b613156611a3a565b613121565b50509350613168906115bc565b6020613173816115bc565b8210156131d05790612210826131be938310156131c3575b6131466131b86131b26131ac6001600160f81b03198a881a60f81b166131f9565b936115bc565b856118bc565b866130d5565b613168565b6131cb611a3a565b61318b565b5050905090565b6102c5906115bc565b6102c5906131f46115d76102c59460ff1690565b901c90565b611ec96132116102c59261320b600090565b506131d7565b61321b60f861139e565b906131e056fea264697066735822122041a732979d335fd19c8cb716da7f670ae59e0114d7e88c001bc3cea05a226b7c64736f6c63430008110033",
  "devdoc": {
    "kind": "dev",
    "methods": {
      "ccipReceive((bytes32,uint64,bytes,bytes,(address,uint256)[]))": {
        "details": "Note ensure you check the msg.sender is the OffRampRouter",
        "params": {
          "message": "CCIP Message"
        }
      },
      "getRouter()": {
        "returns": {
          "_0": "i_router address"
        }
      },
      "supportsInterface(bytes4)": {
        "details": "Should indicate whether the contract implements IAny2EVMMessageReceiver e.g. return interfaceId == type(IAny2EVMMessageReceiver).interfaceId || interfaceId == type(IERC165).interfaceId This allows CCIP to check if ccipReceive is available before calling it. If this returns false or reverts, only tokens are transferred to the receiver. If this returns true, tokens are transferred and ccipReceive is called atomically. Additionally, if the receiver address does not have code associated with it at the time of execution (EXTCODESIZE returns 0), only tokens will be transferred.",
        "params": {
          "interfaceId": "The interfaceId to check"
        },
        "returns": {
          "_0": "true if the interfaceId is supported"
        }
      }
    },
    "version": 1
  },
  "userdoc": {
    "kind": "user",
    "methods": {
      "acceptOwnership()": {
        "notice": "Allows an ownership transfer to be completed by the recipient."
      },
      "ccipReceive((bytes32,uint64,bytes,bytes,(address,uint256)[]))": {
        "notice": "Called by the Router to deliver a message. If this reverts, any token transfers also revert. The message will move to a FAILED state and become available for manual execution."
      },
      "getRouter()": {
        "notice": "Return the current router"
      },
      "owner()": {
        "notice": "Get the current owner"
      },
      "supportsInterface(bytes4)": {
        "notice": "IERC165 supports an interfaceId"
      },
      "transferOwnership(address)": {
        "notice": "Allows an owner to begin transferring ownership to a new address, pending."
      }
    },
    "version": 1
  },
  "storageLayout": {
    "storage": [
      {
        "astId": 5822,
        "contract": "contracts/ValeriumFactory.sol:ValeriumFactory",
        "label": "ValeriumNameToDetails",
        "offset": 0,
        "slot": "0",
        "type": "t_mapping(t_string_memory_ptr,t_struct(ValeriumDetails)5817_storage)"
      },
      {
        "astId": 267,
        "contract": "contracts/ValeriumFactory.sol:ValeriumFactory",
        "label": "s_owner",
        "offset": 0,
        "slot": "1",
        "type": "t_address"
      },
      {
        "astId": 269,
        "contract": "contracts/ValeriumFactory.sol:ValeriumFactory",
        "label": "s_pendingOwner",
        "offset": 0,
        "slot": "2",
        "type": "t_address"
      },
      {
        "astId": 4392,
        "contract": "contracts/ValeriumFactory.sol:ValeriumFactory",
        "label": "s_linkToken",
        "offset": 0,
        "slot": "3",
        "type": "t_contract(IERC20)1305"
      },
      {
        "astId": 4396,
        "contract": "contracts/ValeriumFactory.sol:ValeriumFactory",
        "label": "allowlistedDestinationChains",
        "offset": 0,
        "slot": "4",
        "type": "t_mapping(t_uint64,t_bool)"
      },
      {
        "astId": 4400,
        "contract": "contracts/ValeriumFactory.sol:ValeriumFactory",
        "label": "allowlistedSourceChains",
        "offset": 0,
        "slot": "5",
        "type": "t_mapping(t_uint64,t_bool)"
      },
      {
        "astId": 4404,
        "contract": "contracts/ValeriumFactory.sol:ValeriumFactory",
        "label": "allowlistedSenders",
        "offset": 0,
        "slot": "6",
        "type": "t_mapping(t_address,t_bool)"
      }
    ],
    "types": {
      "t_address": {
        "encoding": "inplace",
        "label": "address",
        "numberOfBytes": "20"
      },
      "t_bool": {
        "encoding": "inplace",
        "label": "bool",
        "numberOfBytes": "1"
      },
      "t_contract(IERC20)1305": {
        "encoding": "inplace",
        "label": "contract IERC20",
        "numberOfBytes": "20"
      },
      "t_mapping(t_address,t_bool)": {
        "encoding": "mapping",
        "key": "t_address",
        "label": "mapping(address => bool)",
        "numberOfBytes": "32",
        "value": "t_bool"
      },
      "t_mapping(t_string_memory_ptr,t_struct(ValeriumDetails)5817_storage)": {
        "encoding": "mapping",
        "key": "t_string_memory_ptr",
        "label": "mapping(string => struct ValeriumStorage.ValeriumDetails)",
        "numberOfBytes": "32",
        "value": "t_struct(ValeriumDetails)5817_storage"
      },
      "t_mapping(t_uint64,t_bool)": {
        "encoding": "mapping",
        "key": "t_uint64",
        "label": "mapping(uint64 => bool)",
        "numberOfBytes": "32",
        "value": "t_bool"
      },
      "t_string_memory_ptr": {
        "encoding": "bytes",
        "label": "string",
        "numberOfBytes": "32"
      },
      "t_struct(ValeriumDetails)5817_storage": {
        "encoding": "inplace",
        "label": "struct ValeriumStorage.ValeriumDetails",
        "members": [
          {
            "astId": 5814,
            "contract": "contracts/ValeriumFactory.sol:ValeriumFactory",
            "label": "walletAddress",
            "offset": 0,
            "slot": "0",
            "type": "t_address"
          },
          {
            "astId": 5816,
            "contract": "contracts/ValeriumFactory.sol:ValeriumFactory",
            "label": "isUsed",
            "offset": 20,
            "slot": "0",
            "type": "t_bool"
          }
        ],
        "numberOfBytes": "32"
      },
      "t_uint64": {
        "encoding": "inplace",
        "label": "uint64",
        "numberOfBytes": "8"
      }
    }
  }
}